:100000000C94C5000C94B50F0C94A40C0C94A70987
:100010000C94630B0C94B50F0C94B50F0C94B50FA6
:100020000C94B50F0C94B50F0C94B50F0C94B50F40
:100030000C94B50F0C94B50F0C94B50F0C94B50F30
:100040000C94B50F0C94B50F0C94B50F0C94B50F20
:100050000C94C60C0C940E0C0C94820C0C94600C3A
:100060000C94B50F0C94B50F0C94B50F0C94B50F00
:100070000C94B50F0C94B50F38003806803806384C
:1000800014001F6E3814382480382438250012914B
:1000900000407A10F35A00A0724E18090010A5D43F
:1000A000E80000E87648170000E40B54020000CA9C
:1000B0009A3B000000E1F5050000809698000000E2
:1000C00040420F000000A086010000001027000041
:1000D0000000E803000000006400000000000A00C7
:1000E000000000000100000000002C76D888DC67CA
:1000F0004F0823DFC1DFAE59E1B1B796E5E3E45322
:10010000C63AE651997696E8E6C28426EB898C9B3E
:1001100062ED407C6FFCEFBC9C9F40F2BAA56FA5DE
:10012000F490055A2AF75C936B6CF9676DC11BFC60
:10013000E0E40D47FEF520E6B500D0ED902E03007B
:10014000943577050080841E080000204E0A0000C8
:1001500000C80C333333330F986E12831141EF8D87
:100160002114893BE65516CFFEE6DB18D1844B38C7
:100170001BF77C1D901DA4BBE424203284725E22F8
:100180008100C9F124ECA1E53D2711241FBECFEF6A
:10019000CDBFDFE3DEBFE8E7F0E040E017C0B59198
:1001A000A59135912591059107FD0CC095918591FB
:1001B000EF01F92FE82F05900D92A217B307D9F799
:1001C000FE0104C01D92A217B307E1F7E039F4075E
:0E01D00031F70E9470040C94ED00F894FFCFFC
:0801DE006E616E00696E66009F
:1001E600A0E1B0E0E9EFF0E00C94910D7C011B0179
:1001F6006A01FC0116821782838181FF44C39E0136
:100206002F5F3F4F3901F7019381F10193FD8591EE
:1002160093FF81911F01882309F431C3853239F494
:1002260093FD859193FF81911F01853239F4B701C2
:1002360090E00E949F0B56016501E5CF10E0512C1E
:10024600912CFFE1F915D8F08B3279F038F4803231
:1002560079F08332A1F4F92DF0612EC08D3261F070
:10026600803369F4292D21602DC0392D3260932EFB
:10027600892D8460982E2AC0E92DE86015C097FC68
:100286002DC020ED280F2A3088F496FE06C03AE0ED
:10029600139F200D1124122F19C08AE0589E200D9D
:1002A6001124522EE92DE0629E2E10C08E3231F4BA
:1002B60096FCE5C2F92DF0649F2E08C08C3621F419
:1002C600292D2068922E02C0883641F4F10193FD53
:1002D600859193FF81911F018111B3CF9BEB980FFD
:1002E600933020F4992D9061805E07C09BE9980FAA
:1002F600933008F066C1992D9F7E96FF16E09F7396
:10030600992E853619F49064992E08C0863621F404
:10031600392F3068932E02C01111115097FE07C075
:100326001C3350F444244394410E27E00BC018308C
:1003360038F027E017E005C027E09CE3492E02C00D
:10034600212F412C560184E0A80EB11CF6016081D4
:10035600718182819381042DA3010E940B066C0199
:10036600F981FC87F0FF02C0F3FF06C091FC06C0CE
:1003760092FE06C000E205C00DE203C00BE201C01A
:1003860000E08C858C7019F001115AC29BC297FE51
:1003960010C04C0CFC85F4FF04C08A81813309F43B
:1003A6004A94141474F528E0241578F588E0482E4C
:1003B6002CC096FC2AC0812F90E08C159D059CF0E0
:1003C6003CEFC3163FEFD30674F0892D8068982E54
:1003D6000AC0E2E0F0E0EC0FFD1FE10FF11D8081A5
:1003E600803319F411501111F4CF97FE0EC0442436
:1003F6004394410E812F90E0C816D9062CF41C199F
:1004060004C04424439401C010E097FE06C01C14A7
:100416001D0434F4C601019605C085E090E002C0D3
:1004260081E090E001110196112331F0212F30E097
:100436002F5F3F4F820F931F252D30E082179307C2
:1004460014F4581A01C0512C892D897049F455208D
:1004560039F0B70180E290E00E949F0B5A94F7CFE3
:10046600002329F0B701802F90E00E949F0B93FC98
:1004760009C0552039F0B70180E390E00E949F0B38
:100486005A94F7CF97FE4CC04601D7FE02C0812C86
:10049600912CC60188199909F301E80FF91FED8718
:1004A600FE879601241931092F87388B012F10E01A
:1004B6001195019511093FEF8316930629F4B701AB
:1004C6008EE290E00E949F0BC814D9044CF08F85F1
:1004D60098898815990524F4ED85FE85818101C0EA
:1004E60080E3F1E08F1A91082D853E852F5F3F4FFF
:1004F6002D873E87801691062CF0B70190E00E946A
:100506009F0BD9CFC814D90441F49A81963320F4AD
:10051600953319F43C8534FF81E3B70190E04EC072
:100526008A81813319F09C859F7E9C87B70190E074
:100536000E949F0B111105C094FC18C085E690E03F
:1005460017C0B7018EE290E00E949F0B1E5F82E00B
:1005560001E0080FF301E80FF11D8081B70190E07B
:100566000E949F0B802F0113F3CFE6CF85E490E026
:10057600B7010E949F0BD7FC06C0C114D10441F4F9
:10058600EC85E4FF05C0D194C194D1088DE201C089
:100596008BE2B70190E00E949F0B80E32AE0C2162F
:1005A600D1042CF08F5FFAE0CF1AD108F7CFB7014C
:1005B60090E00E949F0BB701C601C0960E949F0B58
:1005C60054C1833631F0833779F0833509F056C04C
:1005D60020C0560132E0A30EB11CF601808189834A
:1005E60001E010E0630112C05601F2E0AF0EB11C4B
:1005F600F601C080D18096FE03C0612F70E002C074
:100606006FEF7FEFC6010E94580F8C01F92DFF771F
:1006160014C0560122E0A20EB11CF601C080D180A2
:1006260096FE03C0612F70E002C06FEF7FEFC60138
:100636000E944D0F8C01F92DF0689F2EF3FD1AC014
:10064600852D90E008171907A8F4B70180E290E01D
:100656000E949F0B5A94F4CFF60197FC859197FE62
:1006660081916F01B70190E00E949F0B51105A943F
:10067600015011090115110579F7F7C0843611F0FB
:10068600893661F5560197FE09C024E0A20EB11C19
:10069600F60160817181828193810AC0F2E0AF0E1A
:1006A600B11CF60160817181072E000C880B990B35
:1006B600F92DFF769F2E97FF09C09095809570952E
:1006C60061957F4F8F4F9F4FF0689F2E2AE030E055
:1006D600A3010E944909C82EC6183FC0092D8537B7
:1006E60021F40F7E2AE030E01DC0097F8F3691F09D
:1006F60018F4883559F0C3C0803719F0883711F0DF
:10070600BEC0006104FF09C0046007C094FE08C0B3
:10071600066006C028E030E005C020E130E002C0F7
:1007260020E132E0560107FF09C084E0A80EB11CA3
:10073600F601608171818281938108C0F2E0AF0E7B
:10074600B11CF6016081718180E090E0A3010E94F6
:100756004909C82EC6180F77902E96FE0BC0092D94
:100766000E7FC11650F494FE0AC092FC08C0092DF3
:100776000E7E05C0DC2C092D03C0DC2C01C0D12E59
:1007860004FF0DC0FE01EC0DF11D8081803311F4D4
:10079600097E09C002FF06C0D394D39404C0802FFB
:1007A600867809F0D39403FD11C000FF06C01C2D06
:1007B600D51480F4150D1D190DC0D51458F4B701C4
:1007C60080E290E00E949F0BD394F7CFD51410F4EB
:1007D6005D1801C0512C04FF10C0B70180E390E002
:1007E6000E949F0B02FF17C001FD03C088E790E03F
:1007F60002C088E590E0B7010CC0802F867859F0DA
:1008060001FF02C08BE201C080E207FD8DE2B70165
:1008160090E00E949F0BC11638F4B70180E390E088
:100826000E949F0B1150F7CFCA94F301EC0DF11DF6
:100836008081B70190E00E949F0BC110F5CF15C0D3
:10084600F4E0F51560F584E0581A93FE1FC0011117
:1008560027C02C8523FF2AC00EED11E0392D3071FB
:10086600932EF8018491811124C0552009F4E4CC1B
:10087600B70180E290E00E949F0B5A94F6CFF701F1
:100886008681978126C08FEF9FEF23C0B70180E254
:1008960090E00E949F0B5A945110F8CFD8CF512C5C
:1008A600B701802F90E00E949F0BD3CF02EE11E09C
:1008B600D5CF91108052B70190E00E949F0B0F5F39
:1008C6001F4FCFCF23E0251510F483E0BDCF512C69
:0A08D600C0CF6096E2E10C94AA0D79
:1008E000CF93DF93CDB7DEB76597CDBFDEBF0E9454
:1008F0000A0D89E10E94240F19821A821B821C8230
:100900008FE692E1A3E8B9E38E839F83A887B98736
:100910008FE692E1A3E0BAE38A879B87AC87BD8725
:1009200080E090E0A0E2BAE38E879F87A88BB98B26
:100930008FE692E1A3E8BAE38A8B9B8BAC8BBD8BED
:1009400086E58D83889586E58D830E94410F882FEB
:1009500090E08430910509F44AC0853091052CF46B
:10096000009779F0029769F0D2C08630910509F4BA
:1009700086C0863091050CF45EC0079709F4A3C0C9
:10098000C6C080ED91E9892F8F9380ED91E98F9317
:100990000E941B0E0F900F900E94140FDC01CB01E0
:1009A000BC01CD010E94260BDC01CB0120E030E030
:1009B00040E855E4BC01CD010E94AA0FDC01CB0147
:1009C00089839A83AB83BC8320E030E048EC52E417
:1009D00069817A818B819C810E94AE0FDC01CB0101
:1009E00089839A83AB83BC8385E28D839FC08AEE23
:1009F00091E9892F8F938AEE91E98F930E941B0EC4
:100A00000F900F900E94140FDC01CB01BC01CD01AF
:100A10000E94260BDC01CB012E813F814885598540
:100A2000BC01CD010E94AE0FDC01CB0189839A830A
:100A3000AB83BC837BC089EF91E9892F8F9389EFCA
:100A400091E98F930E941B0E0F900F900E94140F3C
:100A5000DC01CB01BC01CD010E94260BDC01CB01E6
:100A60002A853B854C855D85BC01CD010E94AE0F7A
:100A7000DC01CB0189839A83AB83BC8357C088E0B8
:100A800092E9892F8F9388E092E98F930E941B0E41
:100A90000F900F900E94140FDC01CB01BC01CD011F
:100AA0000E94260BDC01CB012E853F8548895989A0
:100AB000BC01CD010E94AE0FDC01CB0189839A837A
:100AC000AB83BC8333C085E192E9892F8F9385E1A5
:100AD00092E98F930E941B0E0F900F900E94140FAB
:100AE000DC01CB01BC01CD010E94260BDC01CB0156
:100AF0002A893B894C895D89BC01CD010E94AE0FDA
:100B0000DC01CB0189839A83AB83BC830FC084E271
:100B100092E9892F8F9384E292E98F930E941B0EB2
:100B20000F900F9019821A821B821C820E94140F50
:100B3000DC01CB01292F2F938F9380E392E9892F3A
:100B40008F9380E392E98F930E941B0E0F900F907A
:100B50000F900F900E946E0E8823A9F00E94430D03
:100B6000882F90E0292F2F938F9388E592E9892F82
:100B70008F9388E592E98F930E941B0E0F900F9040
:100B80000F900F900BC08CE692E9892F8F938CE623
:100B900092E98F930E941B0E0F900F900E94A10A62
:100BA0008D818635C1F48C818F938B818F938A815F
:100BB0008F9389818F938CE792E9892F8F938CE7AC
:100BC00092E98F930E941B0E0F900F900F900F9041
:100BD0000F900F901AC08D818532B9F48C818F935C
:100BE0008B818F938A818F9389818F9386E892E995
:100BF000892F8F9386E892E98F930E941B0E0F90A6
:100C00000F900F900F900F900F9000000E945A0EBF
:060C10008823E1F797CEF6
:100C1600283008F027E03327DA01990F311D87FDC8
:100C2600916000966105710539F432602E5F3D933F
:100C360030E32A95E1F708959F3F30F0803871053B
:100C4600610509F03C5F3C5F3D93913008F0806898
:100C5600911DDF93CF931F930F93FF92EF92192F5E
:100C6600987F9695E92F96959695E90FFF27E65179
:100C7600FF4F99273327EE24FF24A701E7010590AC
:100C86000894079428F4360FE71EF81E491F511DD5
:100C9600660F771F881F991F0694A1F70590079482
:100CA60028F4E70EF81E491F561FC11D770F881F2F
:100CB600991F661F0694A1F70590079428F4F80E6D
:100CC600491F561FC71FD11D880F991F661F771F03
:100CD6000694A1F70590079420F4490F561FC71FE5
:100CE600D81F990F661F771F881F0694A9F784914E
:100CF6001095177041F0D695C79557954795F79477
:100D0600E7941A95C1F7E0E9F0E06894159015911B
:100D160035916591959105907FE27395E118F10AF9
:100D2600430B560BC90BD009C0F7E10CF11E431F4C
:100D3600561FC91FD01D7EF4703311F48A95E6CF75
:100D4600E894015030F0080F0AF40027021708F45F
:100D5600202F2395022F7A3328F079E37D932A9565
:100D6600E9F710C07D932A9589F6069497956795BD
:100D7600379517951794E118F10A430B560BC90BD3
:100D8600D00998F023957E9173957A3308F070E335
:100D96007C932013B8F77E9170617D9330F0839534
:100DA60071E37D9370E32A95E1F71124EF90FF90AC
:100DB6000F911F91CF91DF91992787FD9095089507
:100DC600CF93DF93CDB7DEB70E94030A80E094E0AD
:100DD600FC01108280E294E024E0FC01208380E4A0
:100DE60094E0FC01108280E094E0FC01148280E231
:100DF60094E0FC01148280E494E0FC01148280E01B
:100E060094E0FC01108A80E094E0FC01118A80E005
:100E160094E0FC01128A80E094E0FC01138A80E0F1
:100E260094E0FC01148A80E094E024E0FC01258B28
:100E360080E094E024E0FC01268B80E094E024E04E
:100E4600FC01278B80E294E0FC01108A80E294E0AA
:100E5600FC01118A80E294E0FC01128A80E294E0AF
:100E6600FC01138A80E294E0FC01148A80E294E09B
:100E7600FC01158A80E294E0FC01168A80E294E087
:100E8600FC01178A80E494E0FC01108A80E494E077
:100E9600FC01118A80E494E0FC01128A80E494E06B
:100EA600FC01138A80E494E028E0FC01248B80E4B2
:100EB60094E0FC01158A80E494E0FC01168A80E443
:100EC60094E0FC01178A80EE95E0FC01118280EE29
:100ED60095E022E0FC01208380EE95E0FC01138280
:100EE60080EE95E0FC01148280EE95E0FC0115820F
:100EF60080EE95E0FC01128283E69FE00E94820E5E
:100F06008BE69FE00E94950E83E79FE00E94A80E65
:100F16008BE79FE00E94BB0E83E89FE00E94CE0E07
:080F26000000DF91CF91089556
:100F2E00CF93DF93CDB7DEB780E891E02AE0FC01E6
:100F3E00208B80E891E0FC01118A80E891E0FC01B1
:100F4E00128A80E891E0FC01138A80E891E0FC01AE
:100F5E00148A80E891E0FC01158A80E891E021E096
:100F6E00FC01208380E891E021E0FC0120A780E8CD
:100F7E0091E0FC0110A280E891E0FC0111A280E852
:100F8E0091E0FC0112A280E891E0FC0113A280E83E
:100F9E0091E0FC0114A280E891E0FC0115A280E82A
:100FAE0091E0FC0116A280E891E0FC0117A280E816
:100FBE0091E0FC0111A680E891E021E0FC0122A75E
:100FCE0080E891E0FC0113A680E891E0FC0116A6F2
:100FDE0080E891E0FC0117A680E891E0FC0110AAE0
:100FEE0080E891E0FC0111AA80E891E0FC0112AAD0
:100FFE0080E891E0FC0113AA80E891E0FC0114A6C0
:10100E0080E891E0FC0115A680E0DF91CF91089574
:10101E0010C00E94920F58F00E948B0F40F029F4DE
:10102E005F3F29F00C94A00F51110C949A0F0C9461
:10103E00B20F0E94E80C68F39923B1F3552391F394
:10104E00951B550BBB27AA2762177307840738F029
:10105E009F5F5F4F220F331F441FAA1FA9F335D086
:10106E000E2E3AF0E0E832D091505040E695001C3A
:10107E00CAF72BD0FE2F29D0660F771F881FBB1FF4
:10108E00261737074807AB07B0E809F0BB0B802DD2
:10109E00BF01FF2793585F4F3AF09E3F510578F0FE
:1010AE000C94A00F0C949A0F5F3FE4F3983ED4F388
:1010BE00869577956795B795F7959F5FC9F7880FD2
:1010CE00911D9695879597F90895E1E0660F771F24
:1010DE00881FBB1F621773078407BA0720F0621BB5
:0E10EE00730B840BBA0BEE1F88F7E095089584
:1010FC000FC00E948B0F38F00E94920F20F09523A6
:10110C0011F00C94A00F0C94B20F11240C949A0FA4
:10111C000E94E80C70F3959FC1F3950F50E0551F9A
:10112C00629FF001729FBB27F00DB11D639FAA2730
:10113C00F00DB11DAA1F649F6627B00DA11D661F7F
:10114C00829F2227B00DA11D621F739FB00DA11DA0
:10115C00621F839FA00D611D221F749F3327A00D5A
:10116C00611D231F849F600D211D822F762F6A2FF6
:10117C0011249F5750409AF0F1F088234AF0EE0F5B
:10118C00FF1FBB1F661F771F881F91505040A9F788
:10119C009E3F510580F00C94A00F0C949A0F5F3F6A
:1011AC00E4F3983ED4F3869577956795B795F795C4
:1011BC00E7959F5FC1F7FE2B880F911D969587953C
:0411CC0097F90895F2
:1011D00052656C6174697665204D656173757265E1
:1011E0006D656E74204D6F6465005672656620698A
:1011F0007320312E30323456005672656620697382
:1012000020322E30343856005672656620697320BD
:10121000322E3556005672656620697320342E30A2
:101220003936560056726566206973203F3F3F008D
:101230000A0D414443205261772056616C75652048
:1012400069732025690A0D4D6561737572656420A7
:101250005369676E616C2000287769746820676144
:10126000696E206F66202569293A20002877697405
:1012700068204E4F20504741293A2000252E3366E2
:10128000560A0D0A0D00252E316625250A0D0A0D78
:01129000005D
:011291000359
:10129200FA01AA27283051F1203181F1E8946F93A5
:1012A2006E7F6E5F7F4F8F4F9F4FAF4FB1E03ED04B
:1012B200B4E03CD0670F781F891F9A1FA11D680FE9
:1012C200791F8A1F911DA11D6A0F711D811D911D1C
:1012D200A11D20D009F468943F912AE0269F112491
:1012E2003019305D3193DEF6CF010895462F4770F5
:1012F200405D4193B3E00FD0C9F7F6CF462F4F7050
:10130200405D4A3318F0495D31FD4052419302D0AD
:10131200A9F7EACFB4E0A695979587957795679553
:10132200BA95C9F700976105710508959B01AC0153
:101332000A2E06945795479537952795BA95C9F77A
:0C134200620F731F841F951FA01D0895EB
:10134E001F920F9200903F000F9211242F933F9304
:10135E004F935F936F937F938F939F93AF93BF93AF
:10136E00EF93FF93CF93DF93CDB7DEB780E491E099
:10137E00FC018381882F90E081709927892B61F081
:10138E0080911E3890911F38892B31F080911E3834
:10139E0090911F38FC01099580E491E0FC01838156
:1013AE00882F90E082709927892B61F080912038E8
:1013BE0090912138892B31F08091203890912138ED
:1013CE00FC01099580E491E023E0FC0123830000F9
:1013DE00DF91CF91FF91EF91BF91AF919F918F913F
:1013EE007F916F915F914F913F912F910F9000924E
:0813FE003F000F901F901895AD
:10140600CF93DF9300D01F92CDB7DEB7198212C0FB
:101416008981882F90E0805F9B4F2981222F30E0C1
:10142600205F3B4FF90120812860FC0120838981E0
:101436008F5F89838981883058F31A8212C08A8126
:10144600882F90E0805D9B4F2A81222F30E0205D1F
:101456003B4FF90120812860FC0120838A818F5F40
:101466008A838A81883058F31B8212C08B81882F29
:1014760090E0805B9B4F2B81222F30E0205B3B4F1F
:10148600F90120812860FC0120838B818F5F8B838B
:101496008B81883058F300002396CDBFDEBFDF91E5
:0414A600CF91089545
:1014AA00CF93DF93CDB7DEB780E096E028E0FC016A
:1014BA00218380E096E0FC01118680E096E026E533
:1014CA00FC01228380E096E0FC01138280E096E032
:1014DA0024E0FC01208780E096E029E5FC012387CF
:1014EA0080E096E021E0FC01278380E096E024E199
:1014FA00FC01228780E096E021E0FC01248380E061
:10150A0096E023E7FC01248780E096E020E7FC01CF
:10151A00258780E096E0FC01168E178E80E096E023
:10152A00FC01148E158E80E096E021E8FC012083F0
:08153A0080E0DF91CF910895DC
:10154200CF93DF93CDB7DEB780912438882F90E018
:1015520082309105D1F0833091052CF4009761F02F
:10156200019769F022C084309105B9F08430910569
:1015720084F00597B1F019C00E94F20E16C00E94C5
:101582005E0D80E00E94C20D10C080E20E94C20D7A
:101592000CC080E40E94C20D08C080E60E94C20D09
:1015A20004C080E80E94C20D00008091243885307A
:1015B20019F41092243805C0809124388F5F8093EB
:0A15C20024380000DF91CF91089556
:1015CC00CF93DF93CDB7DEB7000080E491E0FC0150
:1015DC0081818823D1F780E491E027EE33E0FC0190
:1015EC002487358780E491E0FC011086118680E425
:1015FC0091E02FEC37E0FC012287338780E491E007
:10160C00FC01128280E491E021E0FC01278380E45C
:10161C0091E021E8FC012083000080E491E0FC01D2
:10162C0081898823D1F780E491E0FC01128A80E45F
:10163C0091E021E6FC01208B80E0DF91CF910895B1
:10164C00E89409C097FB3EF4909580957095619550
:10165C007F4F8F4F9F4F9923A9F0F92F96E9BB2706
:10166C009395F695879577956795B795F111F8CF82
:10167C00FAF4BB0F11F460FF1BC06F5F7F4F8F4FED
:10168C009F4F16C0882311F096E911C0772321F0E3
:10169C009EE8872F762F05C0662371F096E8862F7B
:1016AC0070E060E02AF09A95660F771F881FDAF7D2
:0A16BC00880F9695879597F9089519
:1016C6001F920F9200903F000F9211242F933F9389
:1016D6004F935F936F937F938F939F93AF93BF9334
:1016E600EF93FF93CF93DF93CDB7DEB78091223888
:1016F60090912338892B31F08091223890912338AC
:10170600FC01099580E491E021E0FC01238B0000B7
:10171600DF91CF91FF91EF91BF91AF919F918F9103
:101726007F916F915F914F913F912F910F90009212
:081736003F000F901F90189571
:10173E000F931F93CF93DF93FB01238121FD03C0F2
:10174E008FEF9FEF2CC022FF16C046815781248158
:10175E0035814217530744F4A081B1819D012F5F5B
:10176E003F4F208331838C93268137812F5F3F4FEC
:10177E002683378314C08B01EC01FB010084F185B5
:10178E00E02D0995892BE1F6D80116968D919C9145
:10179E001797019616968D939C931797CE01DF910E
:0817AE00CF911F910F910895E6
:1017B600CF93DF93CDB7DEB780E098E02BE531E03D
:1017C600FC012087318780E098E0FC01158280E0EB
:1017D60098E020E4FC01268380E098E023E0FC0109
:1017E600278380E098E0FC01138680E098E0FC0106
:1017F600148680E098E0FC01168680E098E0FC0103
:10180600158686E098E380930238909303380000AB
:06181600DF91CF9108955F
:10181C001F920F9200903F000F9211242F938F93E1
:10182C009F93EF93FF93CF93DF93CDB7DEB780E019
:10183C0096E020E2FC01258380E096E020E1FC01AB
:10184C00258380E096E028E0FC0125830000DF91F1
:10185C00CF91FF91EF919F918F912F910F900092CB
:08186C003F000F901F9018953A
:10187400CF93DF93CDB7DEB760E088E790E00E94B6
:10188400050E60E08CE790E00E94050E60E080E7C2
:1018940090E00E94050E61E081E690E00E94050E52
:1018A40060E080E690E00E94050E60E082E690E051
:0C18B4000E94050E80E0DF91CF910895A6
:1018C0001F920F9200903F000F9211242F938F933D
:1018D0009F93EF93FF93CF93DF93CDB7DEB780E075
:1018E00096E022E0FC0125830000DF91CF91FF917B
:1018F000EF919F918F912F910F9000923F000F9049
:041900001F90189587
:101904001F920F9200903F000F9211242F938F93F8
:101914009F93EF93FF93CF93DF93CDB7DEB780E030
:1019240096E021E0FC0125830000DF91CF91FF9137
:10193400EF919F918F912F910F9000923F000F9004
:041944001F90189543
:101948001F920F9200903F000F9211242F938F93B4
:101958009F93EF93FF93CF93DF93CDB7DEB780E8E4
:1019680090E021E0FC0122870000DF91CF91FF91F8
:10197800EF919F918F912F910F9000923F000F90C0
:041988001F901895FF
:10198C001F920F9200903F000F9211242F938F9370
:10199C009F93EF93FF93CF93DF93CDB7DEB780E8A0
:1019AC0096E021E0FC0127830000DF91CF91FF91AD
:1019BC00EF919F918F912F910F9000923F000F907C
:0419CC001F901895BB
:1019D00057FD9058440F551F59F05F3F71F04795E0
:1019E000880F97FB991F61F09F3F79F087950895C5
:1019F000121613061406551FF2CF4695F1DF08C0E4
:101A0000161617061806991FF1CF86957105610500
:041A10000894089599
:101A1400CF93DF93CDB7DEB70E94E3060E94310E69
:101A24000E943A0C0E94340F0E94E10E0E94970714
:101A34000E94780D0E94550A0E94E60A0E94EF0D4A
:0C1A44000E94DB0B0000DF91CF910895A1
:101A5000CF93DF931F92CDB7DEB78983000080E07C
:101A600098E0FC018481882F90E080729927892B6F
:101A7000B1F380E098E02981FC01228300000F90FF
:061A8000DF91CF910895F3
:101A8600CF93DF931F92CDB7DEB780E096E0FC01DF
:101A9600838582958695877089838981282F30E092
:101AA60081E090E002C0880F991F2A95E2F70F9017
:061AB600DF91CF910895BD
:101ABC00CF93DF93CDB7DEB780E096E020E036E041
:101ACC00F90124852F73FC01248780E096E020E047
:101ADC0036E0F90124852064FC0124870000DF91A5
:041AEC00CF910895F9
:101AF000CF93DF93CDB7DEB780E896E0FC01168286
:101B000080E896E0FC01128280E896E0FC011082F9
:101B100080E896E02FEFFC01248380E0DF91CF91F5
:021B2000089526
:101B22002F923F924F925F926F927F928F929F92EB
:101B3200AF92BF92CF92DF92EF92FF920F931F93D9
:101B4200CF93DF93CDB7DEB7CA1BDB0BCDBFDEBFB2
:021B52000994F4
:101B54002A88398848885F846E847D848C849B8439
:101B6400AA84B984C884DF80EE80FD800C811B8147
:101B7400AA81B981CE0FD11DCDBFDEBFED0108957D
:101B8400CF93DF931F92CDB7DEB7898380E096E0D1
:101B940020E036E0F9012385322F3F712981232B80
:0E1BA400FC01238700000F90DF91CF91089580
:101BB200CF93DF9300D01F92CDB7DEB789839A838C
:101BC2006B8389819A814B8168ED0E94A60F000088
:0C1BD2002396CDBFDEBFDF91CF910895B8
:101BDE00CF93DF93CDB7DEB760E080E191E00E9456
:101BEE00D90D80E191E0FC01128280E191E0FC01CF
:0C1BFE001382789480E0DF91CF9108956D
:101C0A00CF93DF9300D01F92CDB7DEB789839A8333
:101C1A006B8389819A814B8168ED0E94A60F00002F
:0C1C2A002396CDBFDEBFDF91CF9108955F
:101C3600A0E0B0E0E1E2FEE00C94A10DAE014B5F46
:101C46005F4FFA0161917191AF01809102389091D5
:0C1C560003380E94F300E2E00C94BA0D89
:101C6200CF93DF93CDB7DEB760E080E890E00E94CB
:101C7200050E80E890E0FC01118680E890E0FC010E
:0A1C8200108680E0DF91CF910895F5
:101C8C00CF93DF9300D01F92CDB7DEB789836A83E1
:101C9C007B8389810E94280D80E090E02396CDBF44
:081CAC00DEBFDF91CF91089526
:101CB400CF93DF93CDB7DEB780E098E0FC01848159
:101CC400882F90E08074992721E0892B09F020E087
:081CD400822FDF91CF910895EA
:101CDC00CF93DF93CDB7DEB780E096E0FC0184852F
:101CEC00982F929596959695937081E0992309F487
:081CFC0080E0DF91CF91089513
:101D0400CF93DF9300D0CDB7DEB789839A838981DF
:101D14009A81809314389093153800000F900F9097
:061D2400DF91CF9108954C
:101D2A00CF93DF9300D0CDB7DEB789839A838981B9
:101D3A009A81809316389093173800000F900F906D
:061D4A00DF91CF91089526
:101D5000CF93DF9300D0CDB7DEB789839A83898193
:101D60009A81809318389093193800000F900F9043
:061D7000DF91CF91089500
:101D7600CF93DF9300D0CDB7DEB789839A8389816D
:101D86009A8180931A3890931B3800000F900F9019
:061D9600DF91CF910895DA
:101D9C00CF93DF9300D0CDB7DEB789839A83898147
:101DAC009A8180931C3890931D3800000F900F90EF
:061DBC00DF91CF910895B4
:101DC200CF93DF93CDB7DEB780EA90E0FC011082BB
:101DD20080EA90E021E0FC01218380E0DF91CF9155
:021DE200089562
:101DE400CF93DF93CDB7DEB780E096E020E036E016
:101DF400F90124852F73FC0124870000DF91CF9122
:021E040008953F
:101E0600092E0394000C11F4882352F0BB0F40F402
:101E1600BF2B11F460FF04C06F5F7F4F8F4F9F4F42
:021E260008951D
:101E2800CF93DF93CDB7DEB780E096E0FC018089E1
:101E38009189A289B389BC01CD01DF91CF91089521
:101E4800CF93DF931F92CDB7DEB7898380E896E002
:101E58002981FC01248300000F90DF91CF91089520
:101E6800CF93DF93CDB7DEB761E080E590E00E94C5
:0A1E7800050E80E0DF91CF91089580
:101E8200CF93DF93CDB7DEB780E096E0FC0182818D
:081E92008770DF91CF910895E4
:101E9A00FC010590615070400110D8F7809590952B
:061EAA008E0F9F1F08953A
:101EB000FC016150704001900110D8F78095909519
:061EC0008E0F9F1F089524
:101EC600CF93DF93CDB7DEB70000DF91CF910895B2
:101ED600CF93DF93CDB7DEB70000DF91CF910895A2
:101EE600CF93DF93CDB7DEB70000DF91CF91089592
:101EF600CF93DF93CDB7DEB70000DF91CF91089582
:101F0600CF93DF93CDB7DEB70000DF91CF91089571
:0E1F160000240A9416161706180609060895E8
:0E1F240000240A9412161306140605060895EA
:0E1F3200E894BB2766277727CB0197F908951F
:0C1F400097F99F6780E870E060E008956A
:081F4C00FC0164BF408308950D
:081F54000E940F080C94030F1A
:081F5C000E947E080C94030FA3
:061F64009FEF80EC0895E0
:041F6A000C940000D3
:0E1F6E000000000200000000460E000000000F
:02000004008278
:090000000000020000C40700002A
:00000001FF
