:100000000C944E000C9400160C9459120C94320D62
:100010000C9411100C9400160C9400160C940016FD
:100020000C9400160C9400160C9400160C940016F8
:100030000C9400160C9400160C9400160C940016E8
:100040000C9400160C9400160C9400160C940016D8
:100050000C9439120C9417110C9419120C94F91178
:100060000C9400160C9400160C9400160C940016B8
:100070000C9400160C9400163800380280380238B0
:1000800012002C0E381238208038203822002C1E06
:10009000382238248038243825001A6311241FBEE2
:1000A000CFEFCDBFDFE3DEBFE8E7F0E040E017C011
:1000B000B591A59135912591059107FD0CC09591BC
:1000C0008591EF01F92FE82F05900D92A217B30744
:1000D000D9F7FE0104C01D92A217B307E1F7EC396E
:1000E000F40731F70E940C060C945715F894FFCFD3
:1000F000A6E2B0E0EEE7F0E00C945E138F8F98A3D9
:100100006E8B7F8B288FFB010190F081E02DE987BA
:10011000FA87FB0102811381248135812A8B3B8B75
:100120008085918589A39AA326803780FA018080F3
:100130009180A280B38020E030E0A901C501B40124
:100140000E94E01587FF06C0B7FAB094B7F8B094E4
:100150008DE204C0598552FF47C38BE2F1018083D1
:100160002A893B89215031092B833C8341E050E0AF
:10017000488B598B06C08A899B898B839C83188AFC
:10018000198AD501C401BF770097E0E8AE07EFE711
:10019000BE0799F4F88D2F2FFF0F330B215431092F
:1001A00088899989820D931D2A31310518F46EE3EF
:1001B0007BEA19C062E47BEA16C00197A048BF47FA
:1001C000A8F0488D242F440F330B2154310988891E
:1001D0009989820D931D2A31310518F466E47BEA72
:1001E00002C06AE47BEA0E94A715EDC220E030E07D
:1001F000A901C501B4010E94E015C12CD12C20E851
:10020000E22E2FE3F22E19821A82882309F48CC081
:100210008D829E82AF82B88620E030E040E251E4D9
:10022000C701B6010E94F2152B013C01D501C401A2
:1002300084199509A609B709B7FF07C0B095A0951D
:10024000909581959F4FAF4FBF4F0297A105B10584
:1002500044F489819A81019689839A8373016201AA
:10026000DBCFA5019401C301B2010E94E01587FD17
:10027000F0CF8D819E81AF81B8858C199D09AE0923
:10028000BF090196A11DB11D0397A105B10508F491
:1002900049C01D821E82A5019401C701B6010E94BA
:1002A000E51518160CF040C0E981FA81E43DFE4FD7
:1002B000E4F44D815E81452BC1F420E030E040E85C
:1002C0005AE5C501B4010E94F2154B015C0120E022
:1002D00030E040E85AE5C701B6010E94F2156B0113
:1002E0007C0181E090E08D839E8320E030E040E25D
:1002F00051E4C701B6010E94EE156B017C01E98152
:10030000FA813197E983FA83D501C4018C199D09DB
:10031000AE09BF090196A11DB11D0397A105B10545
:1003200008F0B9CF46015701288D022E000C330B7F
:10033000288F398FC9010E94AF158A8F17FD03C01E
:100340000D831E8304C046E050E04D835E835A8DCA
:10035000573641F4012B09F04CC281E090E08D83C7
:100360009E8347C24A8D4F8706C029813A8137FF55
:1003700052C256E65F878D819E8101968D839E8352
:100380009F859636B9F4E981FA81F7FF08C0C12C40
:10039000D12C90E8E92E9FE3F92E19821A82FA8D6A
:1003A000F73641F02D813E8149815A81240F351F56
:1003B0002D833E831C2DDDA2EBA20F2D8B869C8608
:1003C000AD86BE861C8A1D8A8C899D89ED81FE8141
:1003D0008E179F07DCF5212F3DA14BA1502F6B8578
:1003E0007C858D859E850E94EE150E9447092B0114
:1003F0003C010E94D3156B8FA3019201612F7DA157
:100400008BA1902F0E94F2152B853C854D855E8532
:100410000E94CC159B01AC0150582B873C874D871F
:100420005E8720E030E040E251E4612F7DA18BA1A6
:10043000902F0E94EE15162F7DA38BA3092F4C89B8
:100440005D894F5F5F4F4C8B5D8BBECF20E030E00E
:1004500040EA50E4612F7DA18BA1902F0E94F215FC
:100460002B013C019B01AC016B857C858D859E85B4
:100470000E94E01587FD0DC0A30192016B857C856C
:100480008D859E850E94E015811106C0FB8DF0FDD3
:1004900003C0412C512C3201A5019401C301B201CA
:1004A0000E94CD154B015C0120E030E040E251E4B8
:1004B000C701B6010E94F2156B877C8B182F092F9C
:1004C0009B01482F592FC501B4010E94E51587FDF6
:1004D00014C029813A812F5F3F4F29833A833F859A
:1004E000363679F44D815E814F5F5F4F4D835E8379
:1004F0005B855DA38C898EA30BC0CB86DC8A1E2D09
:100500000F2D9F85953639F0EB85EDA3FC89FEA371
:10051000E980FA8006C02B852DA33C893EA3E12CFF
:10052000F12C48885988C12CD12C1C8A1D8A1B8625
:100530001C8649855A85407155274BA35CA32B85A2
:100540003C854D815E812417350734F08C899D8967
:10055000892B09F494C09FC03201EE89FF89808500
:10056000918505974816590688F72DA13EA1412F80
:10057000502FC501B4010E94EE150E9447096B8FF0
:100580007C8F8D8F9E8F0E94D3156A30710514F079
:1005900069E070E08BA19CA1892B69F4611571055C
:1005A00051F49A8D973639F4F7FE05C03601EFEF16
:1005B0006E1A7E0A38C02C893D89232B99F4F7FEE8
:1005C00011C03FEF431A530AF101E60DF71D4EE249
:1005D00040838B819C8101978B839C83E1E0F0E0D9
:1005E000EC8BFD8BF101E40DF51D360161147104F6
:1005F00031F020E3219331E0631A7108F7CFC6018F
:10060000840D951D2B813C812C193D092C014FEF48
:10061000441A540AF101E80FF91F605D6083C901B3
:1006200001978B839C832B8D3C8D4D8D5E8D6DA1B1
:100630007EA1812F902F0E94F215A50194010E94A6
:10064000CC154B015C01B7FAB094B7F8B09420E038
:1006500030E040E251E46DA17EA1812F902F0E94F5
:10066000EE156DA37EA3182F092F91E0E91AF1086A
:10067000EB85FC853196EB87FC87630160CFF985BC
:10068000F4FF09C0F101E40DF51D8EE280839201B3
:100690002F5F3F4F2901A101440D551D4D835E83FE
:1006A000FA011082FF85F53609F061C0E9A1FAA1CF
:1006B000E20DF31D3197108229813A8137FF08C07E
:1006C00031952195310929833A8301E010E002C078
:1006D00000E010E0E9A1FAA13197E20DF31D22E05C
:1006E00030E08AE0E82EF12CCF018219930949818C
:1006F0005A81452B91F089819A81B7010E94691432
:10070000805D829369837A83215031094B815C81BA
:10071000415051094B835C83E7CF121613065CF3FB
:10072000FC013197E20DF31D012B11F42BE201C006
:100730002DE220830297B101680F791F288D398D32
:10074000215431092A31310510F025E601C025E494
:10075000FB0120832B813C81225031092B833C8378
:100760004816590624F48D819E810E94A71539856B
:1007700031FF29C030FD27C04B815C81141615065E
:1007800014F5C1010E943015820D931D9C012219A0
:10079000330948895989241735074CF0FC01208119
:1007A000EB81FC81E80FF91F20830197EFCF4B818C
:1007B0005C8160E370E088899989820D931D0E94B5
:1007C0006D151A8A1B8AC1010E94301509851A8588
:1007D0002A893B89AC01B1018F8D98A10E944B10F1
:1007E000A696E2E10C94A713598553FFC4CC80E28E
:1007F000B5CC89819A818C3F9F4F54F0E981FA8171
:100800002D813E81E217F3070CF4AFCD35E604C02D
:0C081000F5E6FF87CFCD36E63F87CCCD64
:10081C00AEE0B0E0E4E1F4E00C9461134C016B0148
:10082C0019821A828FEF9FEF8B839C831D821E820D
:10083C004F83588729873A87A12CB12CD6016D900C
:10084C007C90F301EA0DFB1D808181110FC0D60154
:10085C00ED93FC938081853209F0D3C13F01BFEF4A
:10086C006B1A7B0AF6016082718219C0853279F3AA
:10087C00B401082E000C990B0E94830E4FEFA41AA2
:10088C00B40ADCCF8C32ACF08D32F9F489819A81C8
:10089C00816089839A833196D601ED93FC93D601BE
:1008AC00ED91FC9180818B3269F789819A8184600A
:1008BC00F0CF803221F489819A818860EACF83322B
:1008CC0051F489819A818061E4CF803321F489814C
:1008DC009A818260DECFB701C6010E94E9108D8338
:1008EC009E8397FF0BC029813A81B1E02B27298386
:1008FC003A839195819591098D839E8389819A8103
:10090C0080FF03C08D7F89839A83D601ED91FC9182
:10091C00119780818E3249F43196ED93FC93B70197
:10092C00C6010E94E9108B839C83C6010E94791238
:10093C00582ED601ED91FC918081082E000C990B5C
:10094C000E94AF15893609F443C084F4833609F448
:10095C0002C134F4853209F427C18136E1F030C18B
:10096C008436B1F188360CF4D9C02AC1803709F429
:10097C009AC03CF48E3609F4BCC08F3609F461C0C1
:10098C001FC1853709F440C0883709F476C0833716
:10099C0009F016C1F3C0652D70E0A701CE010B96CE
:1009AC000E949912892B09F426C1D601ED91FC9174
:1009BC001197CF0101968D939C932081AE01455FD9
:1009CC005F4FBE016F5F7F4FC4010E94000010C1DA
:1009DC00652D70E0970141E050E0CE010B960E942E
:1009EC009D0B892B09F407C1F60180819181019639
:1009FC0080839183AE01455F5F4FBE016F5F7F4F78
:100A0C00C4010E94520AF4C0652D70E0970140E0C9
:100A1C0050E0CE010B960E949D0B892B09F4EBC084
:100A2C00D6018D919C91119701968D939C93AE015B
:100A3C00455F5F4FBE016F5F7F4FC4010E94CC0EBC
:100A4C00D7C0652D70E0970140E050E0CE010B96C9
:100A5C000E949D0B892B09F4CEC0F60180819181F7
:100A6C00019680839183AE01455F5F4FBE016F5F3E
:100A7C007F4FC4010E948C0DBBC0652D70E09701A7
:100A8C0040E050E0CE010B960E949D0B892B09F49F
:100A9C00B2C0D601ED91FC911197CF0101968D93C7
:100AAC009C9320811CC0970140E050E060EF70E007
:100ABC00CE010B960E949D0B892B09F49CC0F6016C
:100ACC00808191810196808391838B859C85892B74
:100ADC0029F420E030E04AEF5BEA84C028E7AE015D
:100AEC00455F5F4FBE016F5F7F4FC4010E94A90736
:100AFC007FC0A501400F511F652D70E09701CE01FD
:100B0C000B960E940000892B09F475C0D6018D91BB
:100B1C009C91119701968D939C9373C0652D70E0F9
:100B2C00A701CE010B960E949912892B09F463C080
:100B3C00D601ED91FC911197CF0101968D939C9369
:100B4C002081AE01455F5F4FBE016F5F7F4FC401D7
:100B5C000E9478004DC0B0E85B124DC0F601808158
:100B6C009181019680839183D701ED91FC9111972E
:100B7C00CF0102968D939C93808120C0B0E85B12CC
:100B8C003AC0F60180819181019680839183D701CF
:100B9C00ED91FC911197CF0102968D939C9340811E
:100BAC00518120E030E01EC0B0E85B1224C0F60199
:100BBC00208131812F5F3F4F208331838B870DC084
:100BCC0085E28B87D6016D927C9219821A821D82E6
:100BDC001E828FEF9FEF8B839C8321E030E0AE0170
:100BEC00455F5F4FBE016F5F7F4FC4010E94411193
:100BFC008A0D9B1D07C0F60180819181019680832F
:0C0C0C009183C5012E96EFE00C94AA1312
:100C1800CF93DF93CDB7DEB76597CDBFDEBF0E9418
:100C2800B9120E94EE1489E10E94201519821A82D5
:100C38001B821C828FE692E1A3E8B9E38E839F832F
:100C4800A887B9878FE692E1A3E0BAE38A879B87F2
:100C5800AC87BD8780E090E0A0E2BAE38E879F87EB
:100C6800A88BB98B8FE692E1A3E8BAE38A8B9B8BBA
:100C7800AC8BBD8B86E58D83889586E58D830E9438
:100C88004B15882F90E08430910509F44AC08530CF
:100C980091052CF4009779F0029769F0D2C086305C
:100CA800910509F486C0863091050CF45EC007975B
:100CB80009F4A3C0C6C082EA99E9892F8F9382EA12
:100CC80099E98F930E9477130F900F900E94101547
:100CD800DC01CB01BC01CD010E94980FDC01CB01E6
:100CE80020E030E040E855E4BC01CD010E94EE155B
:100CF800DC01CB0189839A83AB83BC8320E030E09D
:100D080048EC52E469817A818B819C810E94F215BA
:100D1800DC01CB0189839A83AB83BC8385E28D8315
:100D28009FC08CEB99E9892F8F938CEB99E98F936E
:100D38000E9477130F900F900E941015DC01CB01D1
:100D4800BC01CD010E94980FDC01CB012E813F81AF
:100D580048855985BC01CD010E94F215DC01CB0103
:100D680089839A83AB83BC837BC08BEC99E9892FF9
:100D78008F938BEC99E98F930E9477130F900F90C4
:100D88000E941015DC01CB01BC01CD010E94980F17
:100D9800DC01CB012A853B854C855D85BC01CD01F5
:100DA8000E94F215DC01CB0189839A83AB83BC8353
:100DB80057C08AED99E9892F8F938AED99E98F9326
:100DC8000E9477130F900F900E941015DC01CB0141
:100DD800BC01CD010E94980FDC01CB012E853F8517
:100DE80048895989BC01CD010E94F215DC01CB016B
:100DF80089839A83AB83BC8333C087EE99E9892FB3
:100E08008F9387EE99E98F930E9477130F900F9035
:100E18000E941015DC01CB01BC01CD010E94980F86
:100E2800DC01CB012A893B894C895D89BC01CD0154
:100E38000E94F215DC01CB0189839A83AB83BC83C2
:100E48000FC086EF99E9892F8F9386EF99E98F93E1
:100E58000E9477130F900F9019821A821B821C82AE
:100E68000E941015DC01CB01292F2F938F9382E06C
:100E78009AE9892F8F9382E09AE98F930E947713DA
:100E88000F900F900F900F900E9455148823A9F08F
:100E98000E940F13882F90E0292F2F938F938AE2B7
:100EA8009AE9892F8F938AE29AE98F930E947713A0
:100EB8000F900F900F900F900BC08EE39AE9892F37
:100EC8008F938EE39AE98F930E9477130F900F9078
:100ED8000E94130F8D818635C1F48C818F938B818D
:100EE8008F938A818F9389818F938EE49AE9892FD2
:100EF8008F938EE49AE98F930E9477130F900F9047
:100F08000F900F900F900F901AC08D818532B9F411
:100F18008C818F938B818F938A818F9389818F9313
:100F280088E59AE9892F8F9388E59AE98F930E943B
:100F380077130F900F900F900F900F900F90000065
:0A0F48000E9441148823E1F797CEC0
:100F5200AFE0B0E0EFEAF7E00C945E131C016B0126
:100F620049835A832B83FB018281938184809580FC
:100F720000811181A680B78097FD02C00D7F02C05B
:100F820081E090E0E981FA81408051806280738043
:100F92009801207133272C833D83740104FF08C01C
:100FA200411451046104710419F032E0E31AF108AA
:100FB200F801E870FF27EE83FF8303FF03C0F1E02F
:100FC200EF1AF108F6010084F185E02D3197EE87E2
:100FD200FF87EA0DFB1D10829C012E193F0928870D
:100FE2003987C801827099278A879B87EB818E2F68
:100FF200EE0F990B9C01215431092C873D872E85D8
:101002003F852230310530F48C819D81892B09F096
:1010120042C05CC0411451046104710461F18E85C7
:101022009F8501978E879F87C2018F7099278A308B
:10103200910514F4C09602C0895A9F4FEC85FD8534
:101042007A9748F49C012062215631092A313105F0
:1010520010F40E947615EE85FF85EA0DFB1D808354
:10106200F1E0EF1AF10884E076946794579447947C
:101072008A95D1F7C4CF888599858E0D9F1D181644
:1010820019066CF21E141F040CF0BECFEA85FB8514
:10109200EF2B29F6B9CFE981FA8180819181A28172
:1010A200B381892B8A2B8B2B89F0EE85FF85EA0D84
:1010B200FB1D31972B8120838E859F8502978E871A
:1010C2009F87FC01EA0DFB1D80E38083EE81FF8197
:1010D200EF2B59F02E853F85215031092E873F870E
:1010E200F901EA0DFB1D80E28083F60140855185FE
:1010F200415051092E853F85421B530BB9016A0DA0
:101102007B1D9401C1010E944B109C01F101808161
:10111200918190FF06C0F601828193818217930725
:0C1122000CF4C9012F96E2E10C94A71315
:10112E00CF93DF93CDB7DEB70E94E50D80E094E05C
:10113E00FC01108280E294E024E0FC01208380E434
:10114E0094E0FC01108280E094E0FC01148280E2C5
:10115E0094E0FC01148280E494E0FC01148280E0AF
:10116E0094E0FC01108A80E094E0FC01118A80E09A
:10117E0094E0FC01128A80E094E0FC01138A80E086
:10118E0094E0FC01148A80E094E024E0FC01258BBD
:10119E0080E094E024E0FC01268B80E094E024E0E3
:1011AE00FC01278B80E294E0FC01108A80E294E03F
:1011BE00FC01118A80E294E0FC01128A80E294E044
:1011CE00FC01138A80E294E0FC01148A80E294E030
:1011DE00FC01158A80E294E0FC01168A80E294E01C
:1011EE00FC01178A80E494E0FC01108A80E494E00C
:1011FE00FC01118A80E494E0FC01128A80E494E000
:10120E00FC01138A80E494E028E0FC01248B80E446
:10121E0094E0FC01158A80E494E0FC01168A80E4D7
:10122E0094E0FC01178A80EE95E0FC01118280EEBD
:10123E0095E022E0FC01208380EE95E0FC01138214
:10124E0080EE95E0FC01148280EE95E0FC011582A3
:10125E0080EE95E0FC0112828FE795E10E949114D9
:10126E0087E895E10E94A4148FE895E10E94B714D7
:10127E0087E995E10E94CA140000DF91CF9108958D
:10128E004F925F926F927F928F929F92AF92BF9288
:10129E00CF92DF92EF92FF92CF93DF93CDB7DEB76F
:1012AE002897CDBFDEBF6B017C01DC01CB0147E18E
:1012BE00B695A795979587954A95D1F799278F5704
:1012CE009109873191059CF597FD36C088248A9443
:1012DE00982C3FE7A32EB12C04C0B594A7949794F5
:1012EE0087948A95D2F7D501C4018C219D21AE2118
:1012FE00BF21892B8A2B8B2BD1F020E030E040E8E8
:10130E005BE7C701B6010E94CD156D837E838F8387
:10131E009887F7FE04C0C80CD91CEA1CFB1C8094ED
:10132E009094A094B094C820D920EA20FB205C2D84
:10133E004D2D3E2D2F2D21C020E030E040E85BE703
:10134E00C701B6010E94CD1569837A838B839C8376
:10135E00F7FE0FC0D701C601880F991FAA1FBB1F2A
:10136E00892B8A2B8B2B19F350E040E030E82FEBC2
:10137E0004C050E040E030E020E0652F742F832F52
:10138E00922F2896CDBFDEBFDF91CF91FF90EF90C9
:10139E00DF90CF90BF90AF909F908F907F906F9087
:0613AE005F904F900895CE
:1013B400CF93DF93CDB7DEB780E891E02AE0FC015C
:1013C400208B80E891E0FC01118A80E891E0FC0127
:1013D400128A80E891E0FC01138A80E891E0FC0124
:1013E400148A80E891E0FC01158A80E891E021E00C
:1013F400FC01208380E891E021E0FC0120A780E843
:1014040091E0FC0110A280E891E0FC0111A280E8C7
:1014140091E0FC0112A280E891E0FC0113A280E8B3
:1014240091E0FC0114A280E891E0FC0115A280E89F
:1014340091E0FC0116A280E891E0FC0117A280E88B
:1014440091E0FC0111A680E891E021E0FC0122A7D3
:1014540080E891E0FC0113A680E891E0FC0116A667
:1014640080E891E0FC0117A680E891E0FC0110AA55
:1014740080E891E0FC0111AA80E891E0FC0112AA45
:1014840080E891E0FC0113AA80E891E0FC0114A635
:1014940080E891E0FC0115A680E0DF91CF910895EA
:1014A400A2E0B0E0E8E5FAE00C945E133C016B01C5
:1014B400FB0122813381A480B5808081918189835D
:1014C4009A8386809780FA012080318042805380FD
:1014D400B201A10157FE07C044275527BA0142199A
:1014E40053096409750937FD03C08D7F89839A8385
:1014F400950157FC05C0898182FD02C083FF02C0AB
:1015040021503109CE0101967C010AE010E0C601A8
:101514000E946C0C57FC03C0298122FF0AC001976A
:10152400F401E80FF91F57FC02C02BE209C02DE2B9
:1015340007C023FF06C00197F401E80FF91F20E25A
:10154400208309811A81F601408551854150510952
:10155400481B590BB401680F791F9501C3010E9400
:101564004B109C01F3018081918190FF06C0F6012C
:1015740082819381821793070CF4C9012296E2E1D8
:041584000C94A71309
:1015880010C00E94BE1558F00E94B71540F029F40B
:101598005F3F29F00C94DA1551110C94C6150C9480
:1015A800FA150E94B51168F39923B1F3552391F305
:1015B800951B550BBB27AA2762177307840738F0BA
:1015C8009F5F5F4F220F331F441FAA1FA9F335D017
:1015D8000E2E3AF0E0E832D091505040E695001CCB
:1015E800CAF72BD0FE2F29D0660F771F881FBB1F85
:1015F800261737074807AB07B0E809F0BB0B802D63
:10160800BF01FF2793585F4F3AF09E3F510578F08E
:101618000C94DA150C94C6155F3FE4F3983ED4F3A6
:10162800869577956795B795F7959F5FC9F7880F62
:10163800911D9695879597F90895E1E0660F771FB4
:10164800881FBB1F621773078407BA0720F0621B45
:0E165800730B840BBA0BEE1F88F7E095089514
:101666000FC00E94B71538F00E94BE1520F09523D2
:1016760011F00C94DA150C94FA1511240C94C61575
:101686000E94B51170F3959FC1F3950F50E0551F59
:10169600629FF001729FBB27F00DB11D639FAA27C1
:1016A600F00DB11DAA1F649F6627B00DA11D661F10
:1016B600829F2227B00DA11D621F739FB00DA11D31
:1016C600621F839FA00D611D221F749F3327A00DEB
:1016D600611D231F849F600D211D822F762F6A2F87
:1016E60011249F5750409AF0F1F088234AF0EE0FEC
:1016F600FF1FBB1F661F771F881F91505040A9F719
:101706009E3F510580F00C94DA150C94C6155F3F88
:10171600E4F3983ED4F3869577956795B795F79554
:10172600E7959F5FC1F7FE2B880F911D96958795CC
:0417360097F9089582
:10173A00CF93DF93DC01F90168387105F1F05CF4AD
:10174A006138710561F164387105A1F1603871057C
:10175A0009F051C02FC0603C710509F441C0603FD7
:10176A007105F1F1603A710509F045C0C081D18176
:10177A00CE0102968083918325C0C081D181CE019A
:10178A00029680839183452B39F04881042E000C00
:10179A00550B660B770B1CC0488150E029C0C081ED
:1017AA00D181CE01049680839183488159816A81CF
:1017BA007B810EC0C081D181CE0102968083918344
:1017CA00452BA1F048815981052E000C660B770B39
:1017DA004D935D936D937C93139781E090E00DC0D8
:1017EA00C081D181CE01029680839183488159813B
:1017FA0060E070E0EDCF80E090E0DF91CF91089556
:10180A0011C00E94B71538F00E94BE1520F039F4B5
:10181A009F3F19F426F40C94FA150EF4E095E7FBB1
:10182A000C94DA15E92F0E94B51158F3BA1762071A
:10183A0073078407950720F079F4A6F50C94C5156B
:10184A000EF4E0950B2EBA2FA02D0B01B9019001D1
:10185A000C01CA01A0011124FF27591B99F0593F15
:10186A0050F4503E68F11A16F040A22F232F342F5D
:10187A004427585FF3CF469537952795A795F040AB
:10188A005395C9F77EF41F16BA0B620B730B840BC0
:10189A00BAF09150A1F0FF0FBB1F661F771F881F78
:1018AA00C2F70EC0BA0F621F731F841F48F48795D0
:1018BA0077956795B795F7959E3F08F0B0CF9395C2
:0E18CA00880F08F09927EE0F979587950895DF
:1018D800A0E0B0E0E2E7FCE00C946013DC01280132
:1018E8001696AD90BC901797F7018081918112965A
:1018F800ED91FC9113971896CD91DC91199721974A
:10190800F7FF02C0E1E0F0E0CA0DDB1D18826901B3
:10191800A1E0B0E08F01021B130B4C01F2E08F2213
:101928009924052C000C66087708CE018A199B09B2
:10193800CA15DB0519F1411551056105710589F0D5
:10194800CB01BA01A30192010E94D711CA01A62FA7
:10195800B72F605D6A9341E0C41AD108A901BC01A0
:10196800E4CF98012C0D3D1D121613064CF31C14E0
:101978001D0434F48114910419F702C080E090E04A
:10198800AB2B31F4F701208131812F7E2083318305
:0A199800CDB7DEB7E0E10C94A9130F
:1019A20052656C6174697665204D65617375726507
:1019B2006D656E74204D6F646500567265662069B0
:1019C2007320312E303234560056726566206973A8
:1019D20020322E30343856005672656620697320E4
:1019E200322E3556005672656620697320342E30C9
:1019F2003936560056726566206973203F3F3F00B4
:101A02000A0D414443205261772056616C7565206E
:101A120069732025690A0D4D6561737572656420CD
:101A22005369676E616C200028776974682067616A
:101A3200696E206F66202569293A2000287769742B
:101A420068204E4F20504741293A2000252E336608
:101A5200560A0D0A0D00252E316625250A0D0A0D9E
:011A62000083
:011A63000181
:101A64001F920F920FB60F9211242F933F934F930F
:101A74005F936F937F938F939F93AF93BF93EF93F2
:101A8400FF93CF93DF93CDB7DEB780E491E0FC0101
:101A94008381882F90E081709927892B61F0809150
:101AA4001A3890911B38892B31F080911A38909113
:101AB4001B38FC01099580E491E0FC018381882FA7
:101AC40090E082709927892B61F080911C38909165
:101AD4001D38892B31F080911C3890911D38FC0100
:101AE400099580E491E023E0FC0123830000DF9169
:101AF400CF91FF91EF91BF91AF919F918F917F9182
:101B04006F915F914F913F912F910F900FBE0F9066
:041B14001F90189571
:101B1800A2E0B0E0E2E9FDE00C9462134C016B0135
:101B2800FB01228133816480758080819181898362
:101B38009A83A680B78037FD03C08D7F89839A83F7
:101B4800FA014081518162817381CE0101967C0145
:101B580008E010E09301C6010E946C0C298124FF63
:101B680006C00197F501E80FF91F20E320832981BA
:101B780023FF06C00197F501E80FF91F20E2208333
:101B880009811A81F6014085518541505109481B48
:101B9800590BB501680F791F9301C4010E944B10BE
:101BA8009C01F4018081918190FF06C0F601828139
:101BB8009381821793070CF4C9012296EEE00C94E6
:021BC800AB135D
:101BCA00CF93DF9300D00F92CDB7DEB7198212C040
:101BDA008981882F90E0805F9B4F2981222F30E0F6
:101BEA00205F3B4FF90120812860FC012083898115
:101BFA008F5F89838981883058F31A8212C08A815B
:101C0A00882F90E0805D9B4F2A81222F30E0205D53
:101C1A003B4FF90120812860FC0120838A818F5F74
:101C2A008A838A81883058F31B8212C08B81882F5D
:101C3A0090E0805B9B4F2B81222F30E0205B3B4F53
:101C4A00F90120812860FC0120838B818F5F8B83BF
:101C5A008B81883058F300002396CDBFDEBFDF9119
:041C6A00CF91089579
:101C6E00CF93DF93CDB7DEB780E096E028E0FC019E
:101C7E00218380E096E0FC01118680E096E026E567
:101C8E00FC01228380E096E0FC01138280E096E066
:101C9E0024E0FC01208780E096E029E1FC01238707
:101CAE0080E096E021E0FC01278380E096E024E1CD
:101CBE00FC01228780E096E021E0FC01248380E095
:101CCE0096E023E3FC01248780E096E020E7FC0108
:101CDE00258780E096E0FC01168E178E80E096E058
:101CEE00FC01148E158E80E096E021E8FC01208325
:081CFE0080E0DF91CF91089511
:101D06000F931F93CF93DF93DB012D913C91119796
:101D160030FF25C016964D915C91179714962D911C
:101D26003C9115974217530778F41296ED91FC9162
:101D36001397808312962D913C9113972F5F3F4FF7
:101D460012962D933C93139716962D913C911797C7
:101D56002F5F3F4F16962D933C93179715C01C96F1
:101D6600ED91FC911D97309719F48FEF9FEF0CC002
:101D76008B01EC010995892BC1F7F80186819781C2
:101D8600019686839783CE01DF91CF911F910F91A4
:021D96000895AE
:101D9800A2E0B0E0E2EDFEE00C9462135C016B019E
:101DA800FB012281338184809580808191818983A0
:101DB8009A836680778037FD03C08D7F89839A83F5
:101DC800FA014081518162817381CE0101967C01C3
:101DD8000AE010E09401C6010E946C0C09811A8186
:101DE800F6014085518541505109481B590BB301F3
:101DF800680F791F9401C5010E944B109C01F501E1
:101E08008081918190FF06C0F601828193818217BB
:0E1E180093070CF4C9012296EEE00C94AB1374
:101E2600CF93DF93CDB7DEB780912438882F90E02B
:101E360082309105D1F0833091052CF4009761F042
:101E4600019769F022C084309105B9F0843091057C
:101E560084F00597B1F019C00E94EE1416C00E94D6
:101E6600441380E00E94BF1310C080E20E94BF139B
:101E76000CC080E40E94BF1308C080E60E94BF1316
:101E860004C080E80E94BF1300008091243885308A
:101E960019F41092243805C0809124388F5F8093FE
:0A1EA60024380000DF91CF91089569
:101EB000CF93DF93CDB7DEB7000080E491E0FC0163
:101EC00081818823D1F780E491E027EE33E0FC01A3
:101ED0002487358780E491E0FC011086118680E438
:101EE00091E02FEC37E0FC012287338780E491E01A
:101EF000FC01128280E491E021E0FC01278380E470
:101F000091E021E8FC012083000080E491E0FC01E5
:101F100081898823D1F780E491E0FC01128A80E472
:101F200091E021E6FC01208B80E0DF91CF910895C4
:101F3000E89409C097FB3EF4909580957095619563
:101F40007F4F8F4F9F4F9923A9F0F92F96E9BB2719
:101F50009395F695879577956795B795F111F8CF95
:101F6000FAF4BB0F11F460FF1BC06F5F7F4F8F4F00
:101F70009F4F16C0882311F096E911C0772321F0F6
:101F80009EE8872F762F05C0662371F096E8862F8E
:101F900070E060E02AF09A95660F771F881FDAF7E5
:0A1FA000880F9695879597F908952C
:101FAA00A2E8B0E0EBEDFFE00C9464135C014A0197
:101FBA00CF57DF4F68837983C158D040C12CD12CC9
:101FCA00CF57DF4FE881F981C158D04080818823FB
:101FDA00E9F07401860120E830E0AE014F5F5F4FFF
:101FEA00BE016F577F4FC5010E940E048C0D9D1DC7
:101FFA008C159D054CF48FE490E080930038909303
:10200A0001388FEF9FEF03C06C01DACFC601CE57BC
:08201A00DF4FECE00C94AD1364
:102022001F920F920FB60F9211242F933F934F934B
:102032005F936F937F938F939F93AF93BF93EF932E
:10204200FF93CF93DF93CDB7DEB780911E38909187
:102052001F38892B31F080911E3890911F38FC0176
:10206200099580E491E021E0FC01238B0000DF91DF
:10207200CF91FF91EF91BF91AF919F918F917F91FE
:102082006F915F914F913F912F910F900FBE0F90E3
:042092001F901895EE
:10209600A0E0B0E0E1E5F0E10C9464136C015B01B3
:1020A6007A01E901480181E08822992400FD03C0F4
:1020B6004217530750F0A701B501C6010E94D71277
:1020C600EC16FD0610F0C70117C08E010E191F0988
:1020D6000115110541F0B60180E290E00E94830EE1
:1020E60001501109F5CF8114910429F4A701B50116
:1020F600C6010E94D712CE01CDB7DEB7ECE00C9434
:02210600AD1317
:10210800CF93DF93CDB7DEB780E098E02BE531E0E1
:10211800FC012087318780E098E0FC01158280E08F
:1021280098E020E4FC01268380E098E023E0FC01AD
:10213800278380E098E0FC01138680E098E0FC01AA
:10214800148680E098E0FC01168680E098E0FC01A7
:102158001586809120389091213822E038E3FC01DF
:0C216800208331830000DF91CF910895A7
:102174000E94BD1188F09F5798F0B92F9927B75145
:10218400B0F0E1F0660F771F881F991F1AF0BA9517
:10219400C9F714C0B13091F00E94C515B1E008959B
:1021A4000C94C515672F782F8827B85F39F0B93F8D
:1021B400CCF3869577956795B395D9F73EF49095CA
:0E21C4008095709561957F4F8F4F9F4F0895C6
:1021D200DC01ED91FC91119780818A3221F080E03F
:1021E20090E03AE00EC03196ED93FC93DB01ED9165
:1021F200FC911197CF0102968D939C9380819181DE
:102202000895ED91FC911197208120532A3068F4B2
:10221200389FA001399F500D1124CA01820F911DD0
:0C2222003196ED93FC931197ECCF0895DA
:10222E001F920F920FB60F9211242F938F939F939D
:10223E00EF93FF93CF93DF93CDB7DEB780E096E0B9
:10224E0020E2FC01258380E096E020E1FC0125835D
:10225E0080E096E028E0FC0125830000DF91CF911D
:10226E00FF91EF919F918F912F910F900FBE0F9035
:04227E001F90189500
:10228200A0E0B0E0E7E4F1E10C9466137C01FB010D
:10229200EA01C901A280B380C480D5800081118186
:1022A200209711F4CCEEDBEA009719F4CE010E94DC
:1022B2003015B7FC04C0A816B90608F4C50196018A
:1022C200AC01BE01C7010E944B10CDB7DEB7EAE0F8
:0422D2000C94AF13A6
:1022D600CF93DF93CDB7DEB760E088E790E00E944A
:1022E600021460E08CE790E00E94021460E080E750
:1022F60090E00E94021461E081E690E00E940214E0
:1023060060E080E690E00E94021460E082E690E0E1
:0C2316000E94021480E0DF91CF91089536
:10232200990F0008550FAA0BE0E8FEEF16161706E4
:10233200E807F907C0F012161306E407F50798F04C
:10234200621B730B840B950B39F40A2661F0232B65
:10235200242B252B21F408950A2609F4A140A695E1
:082362008FEF811D811D08951C
:10236A0057FD9058440F551F59F05F3F71F047953C
:10237A00880F97FB991F61F09F3F79F08795089521
:10238A00121613061406551FF2CF4695F1DF08C040
:10239A00161617061806991FF1CF8695710561055D
:0423AA0008940895F6
:1023AE00A1E21A2EAA1BBB1BFD010DC0AA1FBB1F4B
:1023BE00EE1FFF1FA217B307E407F50720F0A21BBD
:1023CE00B30BE40BF50B661F771F881F991F1A942A
:1023DE0069F760957095809590959B01AC01BD0154
:0423EE00CF0108957E
:1023F2001F920F920FB60F9211242F938F939F93D8
:10240200EF93FF93CF93DF93CDB7DEB780E096E0F3
:1024120022E0FC0125830000DF91CF91FF91EF9133
:102422009F918F912F910F900FBE0F901F90189533
:102432001F920F920FB60F9211242F938F939F9397
:10244200EF93FF93CF93DF93CDB7DEB780E096E0B3
:1024520021E0FC0125830000DF91CF91FF91EF91F4
:102462009F918F912F910F900FBE0F901F901895F3
:102472001F920F920FB60F9211242F938F939F9357
:10248200EF93FF93CF93DF93CDB7DEB780E896E06B
:1024920021E0FC0127830000DF91CF91FF91EF91B2
:1024A2009F918F912F910F900FBE0F901F901895B3
:1024B2001F920F920FB60F9211242F938F939F9317
:1024C200EF93FF93CF93DF93CDB7DEB780E890E031
:1024D20021E0FC0122870000DF91CF91FF91EF9173
:1024E2009F918F912F910F900FBE0F901F90189573
:1024F200CF93DF93EC0190E0E92FF0E0EE0FFF1FA6
:10250200EC53F5458081811102C081810EC0A88102
:10251200B9812C91821305C091811196A883B98348
:1025220001C09F5F9B3040F3892FDF91CF910895C7
:10253200FA0160387105CCF0623871051CF063381D
:10254200710599F4A081B1819D012C5F3F4F2083D9
:1025520031834D915D916D917C91FC01408351835A
:102562006283738381E090E0089580E090E00895B3
:10257200CF93DF93CDB7DEB70E9497080E9418145D
:102582000E946B110E943E150E94DD140E94DA091E
:102592000E942A130E94370E0E94580F0E94EC13C9
:0C25A2000E9484100000DF91CF9108958A
:1025AE00A0E0B0E0EDEDF2E10C9468136C01EB01EC
:1025BE008A017B01E40EF51ECE15DF0541F08991EF
:1025CE00B601082E000C990B0E94830EF5CFC801A0
:0A25DE00CDB7DEB7E8E00C94B113AE
:1025E800CF93DF930F92CDB7DEB78983000080E0E9
:1025F80098E0FC018481882F90E080729927892BCC
:10260800B1F380E098E02981FC01228300000F905B
:06261800DF91CF9108954F
:10261E00CF93DF930F92CDB7DEB780E096E0FC014B
:10262E00838582958695877089838981282F30E0EE
:10263E0081E090E002C0880F991F2A95E2F70F9073
:06264E00DF91CF91089519
:10265400CF93DF93CDB7DEB780E896E0FC01168216
:1026640080E896E023E0FC01228380E896E0FC0108
:10267400108280E896E02FEFFC01248380E0DF9154
:04268400CF91089555
:10268800CF93DF93CDB7DEB780E096E020E036E069
:10269800F90124852F73FC01248780E096E020E06F
:1026A80036E0F90124852064FC0124870000DF91CD
:0426B800CF91089521
:1026BC002F923F924F925F926F927F928F929F9246
:1026CC00AF92BF92CF92DF92EF92FF920F931F9334
:1026DC00CF93DF93CDB7DEB7CA1BDB0BCDBFDEBF0D
:0226EC0009944F
:1026EE00A0E0B0E0EDE7F3E10C946E13AE014B5FAA
:1026FE005F4FFA0161917191AF01E0912038F09135
:10270E002138808191810E948F13E2E00C94B713DF
:10271E00A2E0B0E0E5E9F3E10C946C138C0149837F
:10272E005A83AE014F5F5F4F0E94D50FF801208193
:10273E0024FF02C08FEF9FEF2296E4E00C94B513B6
:10274E002A88398848885F846E847D848C849B8433
:10275E00AA84B984C884DF80EE80FD800C811B8141
:10276E00AA81B981CE0FD11DCDBFDEBFED01089577
:10277E00CF93DF930F92CDB7DEB7898380E096E0DB
:10278E0020E036E0F9012385322F3F712981232B7A
:0E279E00FC01238700000F90DF91CF9108957A
:1027AC00CF93DF9300D00F92CDB7DEB789839A8396
:1027BC006B8389819A814B8168ED0E94EA15000038
:0C27CC002396CDBFDEBFDF91CF910895B2
:1027D800CF93DF93CDB7DEB760E080E191E00E9450
:1027E800D61380E191E0FC01128280E191E0FC01C6
:0C27F8001382789480E0DF91CF91089567
:10280400CF93DF9300D00F92CDB7DEB789839A833D
:102814006B8389819A814B8168ED0E94EA150000DF
:0C2824002396CDBFDEBFDF91CF91089559
:10283000CF93DF93CDB7DEB760E080E890E00E94F1
:10284000021480E890E0FC01118680E890E0FC0131
:0A285000108680E0DF91CF9108951B
:10285A00CF93DF9300D00F92CDB7DEB789836A8317
:10286A007B8389810E94F41280E090E02396CDBF99
:08287A00DEBFDF91CF9108954C
:10288200CF93DF93CDB7DEB780E098E0FC0184817F
:10289200882F90E08074992721E0892B09F020E0AD
:0828A200822FDF91CF91089510
:1028AA00CF93DF93CDB7DEB780E096E0FC01848555
:1028BA00982F929596959695937081E0992309F4AD
:0828CA0080E0DF91CF91089539
:1028D20097FB072E16F4009407D077FD09D00E94CB
:1028E2007D1407FC05D03EF4909581959F4F089585
:0828F200709561957F4F089578
:1028FA00AA1BBB1B51E107C0AA1FBB1FA617B7071C
:10290A0010F0A61BB70B881F991F5A95A9F7809537
:08291A009095BC01CD01089568
:10292200CF93DF9300D0CDB7DEB789839A838981B5
:102932009A81809312389093133800000F900F9071
:06294200DF91CF91089522
:10294800CF93DF9300D0CDB7DEB789839A8389818F
:102958009A81809314389093153800000F900F9047
:06296800DF91CF910895FC
:10296E00CF93DF9300D0CDB7DEB789839A83898169
:10297E009A81809316389093173800000F900F901D
:06298E00DF91CF910895D6
:10299400CF93DF9300D0CDB7DEB789839A83898143
:1029A4009A81809318389093193800000F900F90F3
:0629B400DF91CF910895B0
:1029BA00CF93DF93CDB7DEB780EA90E0FC011082B7
:1029CA0080EA90E021E0FC01218380E0DF91CF9151
:0229DA0008955E
:1029DC00CF93DF93CDB7DEB780E096E020E036E012
:1029EC00F90124852F73FC0124870000DF91CF911E
:0229FC0008953C
:1029FE00092E0394000C11F4882352F0BB0F40F4FF
:102A0E00BF2B11F460FF04C06F5F7F4F8F4F9F4F3E
:022A1E00089519
:102A2000CF93DF93CDB7DEB780E096E0FC018089DD
:102A30009189A289B389BC01CD01DF91CF9108951D
:102A4000CF93DF930F92CDB7DEB7898380E896E00E
:102A50002981FC01248300000F90DF91CF9108951C
:102A6000FC01AF014F5F5F4F2081222311F0FA017B
:0C2A7000F8CF9F01281B390BC901089505
:102A7C00CF93DF93CDB7DEB761E080E590E00E94A5
:0A2A8C00021480E0DF91CF9108955D
:102A9600CF93DF93CDB7DEB780E096E0FC0182816D
:082AA6008770DF91CF910895C4
:102AAE00EC010E9405160E940416CE010E94061625
:062ABE00CE010E94021689
:102AC40068076C094C836A9074A07AC00080688897
:062AD40000846C82008109
:102ADA00FC01480F591FE417F50711F06193FBCF6A
:022AEA0008954D
:102AEC009C01215631092A31310510F48F75992733
:022AFC0008953B
:102AFE00CF93DF93CDB7DEB70000DF91CF9108956E
:102B0E00CF93DF93CDB7DEB70000DF91CF9108955D
:102B1E00CF93DF93CDB7DEB70000DF91CF9108954D
:102B2E00CF93DF93CDB7DEB70000DF91CF9108953D
:102B3E00494E4600696E66004E414E006E616E0053
:102B4E00FC01DB012D91BD0121932111FACF0895D6
:102B5E009C01215431092A31310508F4806208950F
:0E2B6E0000240A941616170618060906089584
:0E2B7C0000240A941216130614060506089586
:0E2B8A00E894BB2766277727CB0197F90895BB
:0E2B98005058BB27AA270E94050C0C94FF146E
:0E2BA6000E94BA106894B1110C94C6150895DF
:0C2BB40097F99F6780E870E060E00895EA
:0A2BC0000E94911108F481E00895CD
:0A2BCA000E94911108F48FEF0895A6
:082BD400FC0164BF4083089579
:082BDC000E94C40A0C94FF14CE
:082BE4000E94330B0C94FF1456
:072BEC00286E756C6C2900D6
:062BF4009FEF80EC089544
:062BFA00286E696C290041
:042C00000C94000030
:042C04000E947600B4
:022C080008952D
:022C0A0008952B
:022C0C00089529
:102C0E000300000000000000000000002D14000072
:022C1E0022385A
:02000004008278
:090000000000020000C40700002A
:00000001FF
