:100000000C94C2000C941E0E0C94E60B0C94E208A7
:100010000C94A50A0C941E0E0C941E0E0C941E0E2D
:100020000C941E0E0C941E0E0C941E0E0C941E0EA0
:100030000C941E0E0C941E0E0C941E0E0C941E0E90
:100040000C941E0E0C941E0E0C941E0E0C941E0E80
:100050000C941E0E0C94500B0C94C40B0C94A20B1D
:100060000C941E0E0C941E0E0C941E0E0C941E0E60
:100070000C941E0E0C941E0E38003806803806387C
:1000800014001C4038143820800000407A10F35AC5
:1000900000A0724E18090010A5D4E80000E87648C8
:1000A000170000E40B54020000CA9A3B000000E174
:1000B000F505000080969800000040420F00000007
:1000C000A08601000000102700000000E8030000E7
:1000D00000006400000000000A00000000000100B1
:1000E000000000002C76D888DC674F0823DFC1DFD2
:1000F000AE59E1B1B796E5E3E453C63AE6519976D5
:1001000096E8E6C28426EB898C9B62ED407C6FFC0E
:10011000EFBC9C9F40F2BAA56FA5F490055A2AF750
:100120005C936B6CF9676DC11BFCE0E40D47FEF559
:1001300020E6B500D0ED902E0300943577050080C1
:10014000841E080000204E0A000000C80C33333320
:10015000330F986E12831141EF8D2114893BE655C0
:1001600016CFFEE6DB18D1844B381BF77C1D901DA3
:10017000A4BBE424203284725E228100C9F124EC05
:10018000A1E53D2711241FBECFEFCDBFDFE3DEBFCA
:10019000E8E7F0E040E017C0B591A59135912591D1
:1001A000059107FD0CC095918591EF01F92FE82F7E
:1001B00005900D92A217B307D9F7FE0104C01D9256
:1001C000A217B307E1F7E938F40731F70E946D048D
:0801D0000C94EA00F894FFCF43
:0801D8006E616E00696E6600A5
:1001E000A0E1B0E0E6EFF0E00C947C0C7C011B0198
:1001F0006A01FC0116821782838181FF44C39E013C
:100200002F5F3F4F3901F7019381F10193FD8591F4
:1002100093FF81911F01882309F431C3853239F49A
:1002200093FD859193FF81911F01853239F4B701C8
:1002300090E00E94E10A56016501E5CF10E0512CE3
:10024000912CFFE1F915D8F08B3279F038F4803237
:1002500079F08332A1F4F92DF0612EC08D3261F076
:10026000803369F4292D21602DC0392D3260932E01
:10027000892D8460982E2AC0E92DE86015C097FC6E
:100280002DC020ED280F2A3088F496FE06C03AE0F3
:10029000139F200D1124122F19C08AE0589E200DA3
:1002A0001124522EE92DE0629E2E10C08E3231F4C0
:1002B00096FCE5C2F92DF0649F2E08C08C3621F41F
:1002C000292D2068922E02C0883641F4F10193FD59
:1002D000859193FF81911F018111B3CF9BEB980F03
:1002E000933020F4992D9061805E07C09BE9980FB0
:1002F000933008F066C1992D9F7E96FF16E09F739C
:10030000992E853619F49064992E08C0863621F40A
:10031000392F3068932E02C01111115097FE07C07B
:100320001C3350F444244394410E27E00BC0183092
:1003300038F027E017E005C027E09CE3492E02C013
:10034000212F412C560184E0A80EB11CF6016081DA
:10035000718182819381042DA3010E94B2056C01F9
:10036000F981FC87F0FF02C0F3FF06C091FC06C0D4
:1003700092FE06C000E205C00DE203C00BE201C020
:1003800000E08C858C7019F001115AC29BC297FE57
:1003900010C04C0CFC85F4FF04C08A81813309F441
:1003A0004A94141474F528E0241578F588E0482E52
:1003B0002CC096FC2AC0812F90E08C159D059CF0E6
:1003C0003CEFC3163FEFD30674F0892D8068982E5A
:1003D0000AC0E2E0F0E0EC0FFD1FE10FF11D8081AB
:1003E000803319F411501111F4CF97FE0EC044243C
:1003F0004394410E812F90E0C816D9062CF41C19A5
:1004000004C04424439401C010E097FE06C01C14AD
:100410001D0434F4C601019605C085E090E002C0D9
:1004200081E090E001110196112331F0212F30E09D
:100430002F5F3F4F820F931F252D30E082179307C8
:1004400014F4581A01C0512C892D897049F4552093
:1004500039F0B70180E290E00E94E10A5A94F7CFA8
:10046000002329F0B701802F90E00E94E10A93FC5D
:1004700009C0552039F0B70180E390E00E94E10AFD
:100480005A94F7CF97FE4CC04601D7FE02C0812C8C
:10049000912CC60188199909F301E80FF91FED871E
:1004A000FE879601241931092F87388B012F10E020
:1004B0001195019511093FEF8316930629F4B701B1
:1004C0008EE290E00E94E10AC814D9044CF08F85B6
:1004D00098898815990524F4ED85FE85818101C0F0
:1004E00080E3F1E08F1A91082D853E852F5F3F4F05
:1004F0002D873E87801691062CF0B70190E00E9470
:10050000E10AD9CFC814D90441F49A81963320F472
:10051000953319F43C8534FF81E3B70190E04EC078
:100520008A81813319F09C859F7E9C87B70190E07A
:100530000E94E10A111105C094FC18C085E690E004
:1005400017C0B7018EE290E00E94E10A1E5F82E0D0
:1005500001E0080FF301E80FF11D8081B70190E081
:100560000E94E10A802F0113F3CFE6CF85E490E0EB
:10057000B7010E94E10AD7FC06C0C114D10441F4BE
:10058000EC85E4FF05C0D194C194D1088DE201C08F
:100590008BE2B70190E00E94E10A80E32AE0C216F4
:1005A000D1042CF08F5FFAE0CF1AD108F7CFB70152
:1005B00090E00E94E10AB701C601C0960E94E10ADC
:1005C00054C1833631F0833779F0833509F056C052
:1005D00020C0560132E0A30EB11CF6018081898350
:1005E00001E010E0630112C05601F2E0AF0EB11C51
:1005F000F601C080D18096FE03C0612F70E002C07A
:100600006FEF7FEFC6010E94D10D8C01F92DFF77AE
:1006100014C0560122E0A20EB11CF601C080D180A8
:1006200096FE03C0612F70E002C06FEF7FEFC6013E
:100630000E94C60D8C01F92DF0689F2EF3FD1AC0A3
:10064000852D90E008171907A8F4B70180E290E023
:100650000E94E10A5A94F4CFF60197FC859197FE27
:1006600081916F01B70190E00E94E10A51105A9404
:10067000015011090115110579F7F7C0843611F001
:10068000893661F5560197FE09C024E0A20EB11C1F
:10069000F60160817181828193810AC0F2E0AF0E20
:1006A000B11CF60160817181072E000C880B990B3B
:1006B000F92DFF769F2E97FF09C090958095709534
:1006C00061957F4F8F4F9F4FF0689F2E2AE030E05B
:1006D000A3010E948408C82EC6183FC0092D853783
:1006E00021F40F7E2AE030E01DC0097F8F3691F0A3
:1006F00018F4883559F0C3C0803719F0883711F0E5
:10070000BEC0006104FF09C0046007C094FE08C0B9
:10071000066006C028E030E005C020E130E002C0FD
:1007200020E132E0560107FF09C084E0A80EB11CA9
:10073000F601608171818281938108C0F2E0AF0E81
:10074000B11CF6016081718180E090E0A3010E94FC
:100750008408C82EC6180F77902E96FE0BC0092D60
:100760000E7FC11650F494FE0AC092FC08C0092DF9
:100770000E7E05C0DC2C092D03C0DC2C01C0D12E5F
:1007800004FF0DC0FE01EC0DF11D8081803311F4DA
:10079000097E09C002FF06C0D394D39404C0802F01
:1007A000867809F0D39403FD11C000FF06C01C2D0C
:1007B000D51480F4150D1D190DC0D51458F4B701CA
:1007C00080E290E00E94E10AD394F7CFD51410F4B0
:1007D0005D1801C0512C04FF10C0B70180E390E008
:1007E0000E94E10A02FF17C001FD03C088E790E004
:1007F00002C088E590E0B7010CC0802F867859F0E0
:1008000001FF02C08BE201C080E207FD8DE2B7016B
:1008100090E00E94E10AC11638F4B70180E390E04D
:100820000E94E10A1150F7CFCA94F301EC0DF11DBB
:100830008081B70190E00E94E10AC110F5CF15C098
:10084000F4E0F51560F584E0581A93FE1FC001111D
:1008500027C02C8523FF2AC008ED11E0392D307107
:10086000932EF8018491811124C0552009F4E4CC21
:10087000B70180E290E00E94E10A5A94F6CFF701B6
:100880008681978126C08FEF9FEF23C0B70180E25A
:1008900090E00E94E10A5A945110F8CFD8CF512C21
:1008A000B701802F90E00E94E10AD3CF0CED11E058
:1008B000D5CF91108052B70190E00E94E10A0F5FFE
:1008C0001F4FCFCF23E0251510F483E0BDCF512C6F
:0A08D000C0CF6096E2E10C94950C95
:1008DA00EF92FF920F931F93CF93DF93CDB7DEB7BB
:1008EA006597CDBFDEBF0E942A0C19821A821B822D
:1008FA001C828FE692E1A3E8B9E38E839F83A887DF
:10090A00B9878FE692E1A3E0BAE38A879B87AC872F
:10091A00BD8780E090E0A0E2BAE38E879F87A88B2C
:10092A00B98B8FE692E1A3E8BAE38A8B9B8BAC8BF7
:10093A00BD8B86E58D83889586E58D830E94BA0DE9
:10094A00882F90E08530910509F45AC086309105C8
:10095A002CF4009759F0049779F1BEC086309105BE
:10096A0009F472C0079709F493C0B6C088EB93E9FB
:10097A00892F8F9388EB93E98F930E94EF0C0F9046
:10098A000F900E949D0DDC01CB01BC01CD010E949C
:10099A00680ADC01CB0120E030E040E855E4BC0104
:1009AA00CD010E94130EDC01CB0189839A83AB83AC
:1009BA00BC8385E28D839FC084EC93E9892F8F9352
:1009CA0084EC93E98F930E94EF0C0F900F900E9492
:1009DA009D0DDC01CB01BC01CD010E94680ADC013E
:1009EA00CB012E813F8148855985BC01CD010E94EA
:1009FA00170EDC01CB0189839A83AB83BC837BC04E
:100A0A0083ED93E9892F8F9383ED93E98F930E9466
:100A1A00EF0C0F900F900E949D0DDC01CB01BC01E1
:100A2A00CD010E94680ADC01CB012A853B854C85F1
:100A3A005D85BC01CD010E94170EDC01CB018983C3
:100A4A009A83AB83BC8357C082EE93E9892F8F9335
:100A5A0082EE93E98F930E94EF0C0F900F900E9401
:100A6A009D0DDC01CB01BC01CD010E94680ADC01AD
:100A7A00CB012E853F8548895989BC01CD010E9449
:100A8A00170EDC01CB0189839A83AB83BC8333C005
:100A9A008FEE93E9892F8F938FEE93E98F930E94BC
:100AAA00EF0C0F900F900E949D0DDC01CB01BC0151
:100ABA00CD010E94680ADC01CB012A893B894C8955
:100ACA005D89BC01CD010E94170EDC01CB0189832F
:100ADA009A83AB83BC830FC08EEF93E9892F8F93E0
:100AEA008EEF93E98F930E94EF0C0F900F9019826B
:100AFA001A821B821C828D81E82EF12C0E94610CC5
:100B0A00082F10E00E949D0DDC01CB012F2D2F93A1
:100B1A002E2D2F932C812F932B812F932A812F9364
:100B2A0029812F93212F2F93202F2F93292F2F9312
:100B3A008F938AE094E9892F8F938AE094E98F93BF
:100B4A000E94EF0C8DB79EB70C96CDBFDEBF00009A
:0A0B5A000E942E0D8823E1F7EECE75
:100B6400283008F027E03327DA01990F311D87FD7B
:100B7400916000966105710539F432602E5F3D93F2
:100B840030E32A95E1F708959F3F30F080387105EE
:100B9400610509F03C5F3C5F3D93913008F080684B
:100BA400911DDF93CF931F930F93FF92EF92192F11
:100BB400987F9695E92F96959695E90FFF27EC5126
:100BC400FF4F99273327EE24FF24A701E70105905F
:100BD4000894079428F4360FE71EF81E491F511D88
:100BE400660F771F881F991F0694A1F70590079435
:100BF40028F4E70EF81E491F561FC11D770F881FE2
:100C0400991F661F0694A1F70590079428F4F80E1F
:100C1400491F561FC71FD11D880F991F661F771FB5
:100C24000694A1F70590079420F4490F561FC71F97
:100C3400D81F990F661F771F881F0694A9F7849100
:100C44001095177041F0D695C79557954795F79429
:100C5400E7941A95C1F7EAE8F0E0689415901591C5
:100C640035916591959105907FE27395E118F10AAC
:100C7400430B560BC90BD009C0F7E10CF11E431FFF
:100C8400561FC91FD01D7EF4703311F48A95E6CF28
:100C9400E894015030F0080F0AF40027021708F412
:100CA400202F2395022F7A3328F079E37D932A9518
:100CB400E9F710C07D932A9589F606949795679570
:100CC400379517951794E118F10A430B560BC90B86
:100CD400D00998F023957E9173957A3308F070E3E8
:100CE4007C932013B8F77E9170617D9330F08395E7
:100CF40071E37D9370E32A95E1F71124EF90FF905F
:100D04000F911F91CF91DF91992787FD90950895B9
:100D1400CF93DF93CDB7DEB70E943E0980E094E025
:100D2400FC01108280E294E024E0FC01208380E452
:100D340094E0FC01108280E094E0FC01148280E2E3
:100D440094E0FC01148280E494E0FC01148280E0CD
:100D540094E0FC01108A80E094E0FC01118A80E0B8
:100D640094E0FC01128A80E094E0FC01138A80E0A4
:100D740094E0FC01148A80E094E0FC01158A80E090
:100D840094E0FC01168A80E094E0FC01178A80E27A
:100D940094E0FC01108A80E294E0FC01118A80E274
:100DA40094E0FC01128A80E294E0FC01138A80E260
:100DB40094E0FC01148A80E294E0FC01158A80E24C
:100DC40094E0FC01168A80E294E0FC01178A80E436
:100DD40094E0FC01108A80E494E0FC01118A80E430
:100DE40094E0FC01128A80E494E0FC01138A80E41C
:100DF40094E028E0FC01248B80E494E0FC01158A53
:100E040080E494E0FC01168A80E494E0FC01178AF3
:100E140080EE95E0FC01118280EE95E022E0FC0179
:100E2400208380EE95E0FC01138280EE95E0FC01C6
:100E3400148280EE95E0FC01158280EE95E0FC01C1
:100E440012828CED9DE00E94420D84EE9DE00E9492
:100E5400550D8CEE9DE00E94680D0000DF91CF914E
:020E64000895EF
:100E6600CF93DF93CDB7DEB780E891E02AE0FC01AF
:100E7600208B80E891E0FC01118A80E891E0FC017A
:100E8600128A80E891E0FC01138A80E891E0FC0177
:100E9600148A80E891E0FC01158A80E891E021E05F
:100EA600FC01208380E891E021E0FC0120A780E896
:100EB60091E0FC0110A280E891E0FC0111A280E81B
:100EC60091E0FC0112A280E891E0FC0113A280E807
:100ED60091E0FC0114A280E891E0FC0115A280E8F3
:100EE60091E0FC0116A280E891E0FC0117A280E8DF
:100EF60091E0FC0111A680E891E021E0FC0122A727
:100F060080E891E0FC0113A680E891E0FC0116A6BA
:100F160080E891E0FC0117A680E891E0FC0110AAA8
:100F260080E891E0FC0111AA80E891E0FC0112AA98
:100F360080E891E0FC0113AA80E891E0FC0114A688
:100F460080E891E0FC0115A680E0DF91CF9108953D
:100F560010C00E94FB0D58F00E94F40D40F029F4D9
:100F66005F3F29F00C94090E51110C94030E0C945A
:100F76001B0E0E94080C68F39923B1F3552391F3D5
:100F8600951B550BBB27AA2762177307840738F0F2
:100F96009F5F5F4F220F331F441FAA1FA9F335D04F
:100FA6000E2E3AF0E0E832D091505040E695001C03
:100FB600CAF72BD0FE2F29D0660F771F881FBB1FBD
:100FC600261737074807AB07B0E809F0BB0B802D9B
:100FD600BF01FF2793585F4F3AF09E3F510578F0C7
:100FE6000C94090E0C94030E5F3FE4F3983ED4F381
:100FF600869577956795B795F7959F5FC9F7880F9B
:10100600911D9695879597F90895E1E0660F771FEC
:10101600881FBB1F621773078407BA0720F0621B7D
:0E102600730B840BBA0BEE1F88F7E09508954C
:101034000FC00E94F40D38F00E94FB0D20F09523A0
:1010440011F00C94090E0C941B0E11240C94030E35
:101054000E94080C70F3959FC1F3950F50E0551F43
:10106400629FF001729FBB27F00DB11D639FAA27F9
:10107400F00DB11DAA1F649F6627B00DA11D661F48
:10108400829F2227B00DA11D621F739FB00DA11D69
:10109400621F839FA00D611D221F749F3327A00D23
:1010A400611D231F849F600D211D822F762F6A2FBF
:1010B40011249F5750409AF0F1F088234AF0EE0F24
:1010C400FF1FBB1F661F771F881F91505040A9F751
:1010D4009E3F510580F00C94090E0C94030E5F3F63
:1010E400E4F3983ED4F3869577956795B795F7958D
:1010F400E7959F5FC1F7FE2B880F911D9695879505
:0411040097F90895BA
:10110800FA01AA27283051F1203181F1E8946F9330
:101118006E7F6E5F7F4F8F4F9F4FAF4FB1E03ED0D6
:10112800B4E03CD0670F781F891F9A1FA11D680F74
:10113800791F8A1F911DA11D6A0F711D811D911DA7
:10114800A11D20D009F468943F912AE0269F11241C
:101158003019305D3193DEF6CF010895462F477080
:10116800405D4193B3E00FD0C9F7F6CF462F4F70DB
:10117800405D4A3318F0495D31FD4052419302D039
:10118800A9F7EACFB4E0A6959795879577956795DF
:10119800BA95C9F700976105710508959B01AC01DF
:1011A8000A2E06945795479537952795BA95C9F706
:0C11B800620F731F841F951FA01D089577
:1011C4001F920F9200903F000F9211242F933F9390
:1011D4004F935F936F937F938F939F93AF93BF933B
:1011E400EF93FF93CF93DF93CDB7DEB780E491E025
:1011F400FC018381882F90E081709927892B61F00D
:1012040080911A3890911B38892B31F080911A38CB
:1012140090911B38FC01099580E491E0FC018381E5
:10122400882F90E082709927892B61F080911C3877
:1012340090911D38892B31F080911C3890911D3884
:10124400FC01099580E491E023E0FC012383000084
:10125400DF91CF91FF91EF91BF91AF919F918F91CA
:101264007F916F915F914F913F912F910F900092D9
:081274003F000F901F90189538
:10127C00CF93DF9300D01F92CDB7DEB7198212C087
:10128C008981882F90E0805F9B4F2981222F30E04D
:10129C00205F3B4FF90120812860FC01208389816C
:1012AC008F5F89838981883058F31A8212C08A81B2
:1012BC00882F90E0805D9B4F2A81222F30E0205DAB
:1012CC003B4FF90120812860FC0120838A818F5FCC
:1012DC008A838A81883058F31B8212C08B81882FB5
:1012EC0090E0805B9B4F2B81222F30E0205B3B4FAB
:1012FC00F90120812860FC0120838B818F5F8B8317
:10130C008B81883058F300002396CDBFDEBFDF9170
:04131C00CF910895D0
:10132000CF93DF93CDB7DEB780E096E028E0FC01F5
:10133000218380E096E0FC01118680E096E026E5BE
:10134000FC01228380E096E0FC01138280E096E0BD
:1013500024E0FC01208780E096E029E3FC0123875C
:1013600080E096E021E0FC01278380E096E024E124
:10137000FC01228780E096E021E0FC01248380E0EC
:1013800096E021E7FC01248780E096E020E7FC015D
:10139000258780E096E0FC01168E178E80E096E0AF
:1013A000FC01148E158E80E096E021E8FC0120837C
:0813B00080E0DF91CF91089568
:1013B80056726566206973205664640056726566C5
:1013C80020697320312E30323456005672656620FB
:1013D800697320322E30343856005672656620699B
:1013E8007320322E35560056726566206973203494
:1013F8002E303936560056726566206973203F3F95
:101408003F000A0D414443205261772056616C75B4
:10141800652069732025690A0D4D656173757265CC
:1014280064205664642F31302028776974682067F7
:1014380061696E206F66202569293A20252E33665A
:0714480025630A0D0A0D00E7
:10145000CF93DF93CDB7DEB7000080E491E0FC01CD
:1014600081818823D1F780E491E027EE33E0FC010D
:101470002487358780E491E0FC011086118680E4A2
:1014800091E02FEC37E0FC012287338780E491E084
:10149000FC01128280E491E021E0FC01278380E4DA
:1014A00091E021E8FC012083000080E491E0FC0150
:1014B00081898823D1F780E491E0FC01128A80E4DD
:1014C00091E021E6FC01208B80E0DF91CF9108952F
:1014D000E89409C097FB3EF49095809570956195CE
:1014E0007F4F8F4F9F4F9923A9F0F92F96E9BB2784
:1014F0009395F695879577956795B795F111F8CF00
:10150000FAF4BB0F11F460FF1BC06F5F7F4F8F4F6A
:101510009F4F16C0882311F096E911C0772321F060
:101520009EE8872F762F05C0662371F096E8862FF8
:1015300070E060E02AF09A95660F771F881FDAF74F
:0A154000880F9695879597F9089596
:10154A001F920F9200903F000F9211242F933F9306
:10155A004F935F936F937F938F939F93AF93BF93B1
:10156A00EF93FF93CF93DF93CDB7DEB780911E3809
:10157A0090911F38892B31F080911E3890911F3835
:10158A00FC01099580E491E021E0FC01238B000035
:10159A00DF91CF91FF91EF91BF91AF919F918F9181
:1015AA007F916F915F914F913F912F910F90009290
:0815BA003F000F901F901895EF
:1015C2000F931F93CF93DF93FB01238121FD03C070
:1015D2008FEF9FEF2CC022FF16C0468157812481D6
:1015E20035814217530744F4A081B1819D012F5FD9
:1015F2003F4F208331838C93268137812F5F3F4F6A
:101602002683378314C08B01EC01FB010084F18532
:10161200E02D0995892BE1F6D80116968D919C91C2
:101622001797019616968D939C931797CE01DF918B
:08163200CF911F910F91089563
:10163A00CF93DF93CDB7DEB780E098E02BE531E0BA
:10164A00FC012087318780E098E0FC01158280E068
:10165A0098E020E4FC01268380E098E023E0FC0186
:10166A00278380E098E0FC01138680E098E0FC0183
:10167A00148680E098E0FC01168680E098E0FC0180
:10168A00158686E098E38093023890930338000029
:06169A00DF91CF910895DD
:1016A0001F920F9200903F000F9211242F938F935F
:1016B0009F93EF93FF93CF93DF93CDB7DEB780E097
:1016C00096E020E2FC01258380E096E020E1FC0129
:1016D000258380E096E028E0FC0125830000DF916F
:1016E000CF91FF91EF919F918F912F910F90009249
:0816F0003F000F901F901895B8
:1016F800CF93DF93CDB7DEB760E088E790E00E9434
:10170800D90C60E08CE790E00E94D90C60E080E79B
:1017180090E00E94D90C61E081E690E00E94D90C2B
:1017280060E080E690E00E94D90C60E082E690E0FC
:0C1738000E94D90C80E0DF91CF91089551
:101744001F920F9200903F000F9211242F938F93BA
:101754009F93EF93FF93CF93DF93CDB7DEB780E0F2
:1017640096E022E0FC0125830000DF91CF91FF91F8
:10177400EF919F918F912F910F9000923F000F90C6
:041784001F90189505
:101788001F920F9200903F000F9211242F938F9376
:101798009F93EF93FF93CF93DF93CDB7DEB780E0AE
:1017A80096E021E0FC0125830000DF91CF91FF91B5
:1017B800EF919F918F912F910F9000923F000F9082
:0417C8001F901895C1
:1017CC001F920F9200903F000F9211242F938F9332
:1017DC009F93EF93FF93CF93DF93CDB7DEB780E862
:1017EC0090E021E0FC0122870000DF91CF91FF9176
:1017FC00EF919F918F912F910F9000923F000F903E
:04180C001F9018957C
:1018100057FD9058440F551F59F05F3F71F04795A1
:10182000880F97FB991F61F09F3F79F08795089586
:10183000121613061406551FF2CF4695F1DF08C0A5
:10184000161617061806991FF1CF869571056105C2
:04185000089408955B
:10185400CF93DF93CDB7DEB70E948A060E94050DB1
:101864000E94AD0D0E947C0B0E947B0D0E943307E9
:101874000E9490090E94280A0E94C30C0E941D0B1A
:081884000000DF91CF910895EF
:10188C00CF93DF931F92CDB7DEB78983000080E042
:10189C0098E0FC018481882F90E080729927892B35
:1018AC00B1F380E098E02981FC01228300000F90C5
:0618BC00DF91CF910895B9
:1018C200CF93DF931F92CDB7DEB780E096E0FC01A5
:1018D200838582958695877089838981282F30E058
:1018E20081E090E002C0880F991F2A95E2F70F90DD
:0618F200DF91CF91089583
:1018F8002F923F924F925F926F927F928F929F9218
:10190800AF92BF92CF92DF92EF92FF920F931F9305
:10191800CF93DF93CDB7DEB7CA1BDB0BCDBFDEBFDE
:02192800099420
:10192A002A88398848885F846E847D848C849B8465
:10193A00AA84B984C884DF80EE80FD800C811B8173
:10194A00AA81B981CE0FD11DCDBFDEBFED010895A9
:10195A00CF93DF9300D01F92CDB7DEB789839A83E6
:10196A006B8389819A814B8168ED0E940F0E00007A
:0C197A002396CDBFDEBFDF91CF91089512
:10198600CF93DF93CDB7DEB760E080E191E00E94B0
:10199600AD0C80E191E0FC01128280E191E0FC0156
:0C19A6001382789480E0DF91CF910895C7
:1019B200CF93DF9300D01F92CDB7DEB789839A838E
:1019C2006B8389819A814B8168ED0E940F0E000022
:0C19D2002396CDBFDEBFDF91CF910895BA
:1019DE00A0E0B0E0E5EFFCE00C948C0CAE014B5FA8
:1019EE005F4FFA0161917191AF0180910238909130
:0C19FE0003380E94F000E2E00C94A50CFD
:101A0A00CF93DF93CDB7DEB760E080E890E00E9425
:101A1A00D90C80E890E0FC01118680E890E0FC0196
:0A1A2A00108680E0DF91CF9108954F
:101A3400CF93DF9300D01F92CDB7DEB789836A833B
:101A44007B8389810E94460C80E090E02396CDBF81
:081A5400DEBFDF91CF91089580
:101A5C00CF93DF93CDB7DEB780E098E0FC018481B3
:101A6C00882F90E08074992721E0892B09F020E0E1
:081A7C00822FDF91CF91089544
:101A8400CF93DF9300D0CDB7DEB789839A83898162
:101A94009A81809314389093153800000F900F901A
:061AA400DF91CF910895CF
:101AAA00CF93DF9300D0CDB7DEB789839A8389813C
:101ABA009A81809316389093173800000F900F90F0
:061ACA00DF91CF910895A9
:101AD000CF93DF9300D0CDB7DEB789839A83898116
:101AE0009A81809318389093193800000F900F90C6
:061AF000DF91CF91089583
:101AF600CF93DF93CDB7DEB780EA90E023E0FC0119
:101B0600208380EA90E0FC01118280E0DF91CF9192
:021B1600089530
:101B1800092E0394000C11F4882352F0BB0F40F4F3
:101B2800BF2B11F460FF04C06F5F7F4F8F4F9F4F33
:021B380008950E
:101B3A00CF93DF93CDB7DEB780E096E0FC018089D2
:101B4A009189A289B389BC01CD01DF91CF91089512
:101B5A00CF93DF93CDB7DEB761E080E590E00E94D6
:0A1B6A00D90C80E0DF91CF910895BF
:101B7400CF93DF93CDB7DEB780E096E0FC0182819E
:081B84008770DF91CF910895F5
:101B8C00FC010590615070400110D8F7809590953C
:061B9C008E0F9F1F08954B
:101BA200FC016150704001900110D8F7809590952A
:061BB2008E0F9F1F089535
:101BB800CF93DF93CDB7DEB70000DF91CF910895C3
:101BC800CF93DF93CDB7DEB70000DF91CF910895B3
:101BD800CF93DF93CDB7DEB70000DF91CF910895A3
:0E1BE80000240A94161617061806090608951A
:0E1BF60000240A94121613061406050608951C
:0E1C0400E894BB2766277727CB0197F9089550
:0C1C120097F99F6780E870E060E008959B
:081C1E00FC0164BF408308953E
:081C26000E94AB070C948C0D29
:081C2E000E941A080C948C0DB1
:061C36009FEF80EC089511
:041C3C000C94000004
:0E1C400000000002000000001A0D000000006D
:02000004008278
:090000000000020000C40700002A
:00000001FF
