:100000000C944E000C9429110C94AD100C945B0BC5
:100010000C943A0C0C9429110C9429110C9429116C
:100020000C9429110C9429110C9429110C94291168
:100030000C9429110C9429110C9429110C94291158
:100040000C9429110C9429110C9429110C94291148
:100050000C94A7100C942C0F0C94A1100C949B10D2
:100060000C9429110C9429110C9429110C94291128
:100070000C9429110C942911380038028038023868
:100080001200226038123818803818381A0022708E
:10009000381A381C80381C381D0013E311241FBE89
:1000A000CFEFCDBFDFE3DEBFE8E7F0E040E017C011
:1000B000B591A59135912591059107FD0CC09591BC
:1000C0008591EF01F92FE82F05900D92A217B30744
:1000D000D9F7FE0104C01D92A217B307E1F7EC396E
:1000E000F40731F70E9426060C94770FF894FFCF9F
:1000F000A6E2B0E0EEE7F0E00C944E0E8F8F98A3EE
:100100006E8B7F8B288FFB010190F081E02DE987BA
:10011000FA87FB0102811381248135812A8B3B8B75
:100120008085918589A39AA326803780FA018080F3
:100130009180A280B38020E030E0A901C501B40124
:100140000E94F71087FF06C0B7FAB094B7F8B094D2
:100150008DE204C0598552FF0DC38BE2F10180830B
:100160002A893B89215031092B833C8341E050E0AF
:10017000488B598B06C08A899B898B839C83188AFC
:10018000198AD501C401BF770097E0E8AE07EFE711
:10019000BE0761F4F88D2F2FFF0F0E948C0F18F40B
:1001A00068E370EA12C06CE370EA0FC00197A048E0
:1001B000BF4770F0488D242F440F0E948C0F18F415
:1001C00060E470EA02C064E470EA0E943410C1C2C4
:1001D00020E030E0A901C501B4010E94F710C12C54
:1001E000D12C20E8E22E2FE3F22E19821A828823E6
:1001F00009F474C08D829E82AF82B8860E94D410AA
:100200000E9415112B013C01D501C40184199509E7
:10021000A609B709B7FF07C0B095A095909581953D
:100220009F4FAF4FBF4F0297A105B10544F489819D
:100230009A81019689839A8373016201DFCFA501B8
:100240009401C301B2010E94F71087FDF0CF8D81A8
:100250009E81AF81B8850E94610F08F43DC01D8268
:100260001E82A5019401C701B6010E94FC10181658
:100270000CF034C0E981FA81E43DFE4FE4F44D8195
:100280005E81452BC1F420E030E040E85AE5C5012D
:10029000B4010E9415114B015C0120E030E040E800
:1002A0005AE5C701B6010E9415116B017C0181E07E
:1002B00090E08D839E830E94D4100E9411116B01E7
:1002C0007C01E981FA813197E983FA83D501C40180
:1002D0000E94610F08F0C5CF46015701288D022EFC
:1002E000000C330B288F398FC9010E942C108A8F84
:1002F00017FD03C00D831E8304C046E050E04D830C
:100300005E835A8D573641F4012B09F038C281E0E3
:1003100090E08D839E8333C24A8D4F8706C029812A
:100320003A8137FF3EC256E65F878D819E810196F6
:100330008D839E839F859636B9F4E981FA81F7FF14
:1003400008C0C12CD12C90E8E92E9FE3F92E198228
:100350001A82FA8DF73641F02D813E8149815A810A
:10036000240F351F2D833E831C2DDDA2EBA20F2D04
:100370008B869C86AD86BE861C8A1D8A8C899D894B
:10038000ED81FE818E179F079CF5212F3DA14BA18A
:10039000502F0E94D9100E9411110E9407072B01B3
:1003A0003C010E946D106B8FA30192010E94DE1030
:1003B0000E9415112B853C854D855E850E94661037
:1003C0009B01AC0150582B873C874D875E870E946C
:1003D000E3100E94DE100E941111162F7DA38BA343
:1003E000092F4C895D894F5F5F4F4C8B5D8BC6CF6A
:1003F00020E030E040EA50E40E94DE100E94151137
:100400002B013C019B01AC010E94D9100E94F71006
:1004100087FD0BC0A30192010E94D9100E94F71022
:10042000811106C0FB8DF0FD03C0412C512C32011F
:10043000A5019401C301B2010E9467104B015C0148
:100440000E94D4100E9415116B877C8B182F092FE6
:100450009B01482F592FC501B4010E94FC1087FD54
:1004600014C029813A812F5F3F4F29833A833F850A
:10047000363679F44D815E814F5F5F4F4D835E83E9
:100480005B855DA38C898EA30BC0CB86DC8A1E2D79
:100490000F2D9F85953639F0EB85EDA3FC89FEA3E2
:1004A000E980FA8006C02B852DA33C893EA3E12C70
:1004B000F12C48885988C12CD12C1C8A1D8A1B8696
:1004C0001C8649855A85407155274BA35CA32B8513
:1004D0003C854D815E812417350734F08C899D89D8
:1004E000892B09F492C09DC03201EE89FF89808575
:1004F000918505974816590688F72DA13EA1412FF1
:10050000502FC501B4010E9411110E9407076B8F83
:100510007C8F8D8F9E8F0E946D106A30710514F054
:1005200069E070E08BA19CA1892B69F461157105CC
:1005300051F49A8D973639F4F7FE05C03601EFEF86
:100540006E1A7E0A38C02C893D89232B99F4F7FE58
:1005500011C03FEF431A530AF101E60DF71D4EE2B9
:1005600040838B819C8101978B839C83E1E0F0E049
:10057000EC8BFD8BF101E40DF51D36016114710466
:1005800031F020E3219331E0631A7108F7CFC601FF
:10059000840D951D2B813C812C193D092C014FEFB9
:1005A000441A540AF101E80FF91F605D6083C90124
:1005B00001978B839C832B8D3C8D4D8D5E8D6DA122
:1005C0007EA1812F902F0E941511A50194010E94F8
:1005D00066104B015C01B7FAB094B7F8B0940E9472
:1005E000E3106DA17EA1812F902F0E9411116DA3A8
:1005F0007EA3182F092F91E0E91AF108EB85FC85FD
:100600003196EB87FC87630162CFF985F4FF09C05F
:10061000F101E40DF51D8EE2808392012F5F3F4FC3
:100620002901A101440D551D4D835E83FA011082FD
:10063000FF85F53609F061C0E9A1FAA1E20DF31DCD
:100640003197108229813A8137FF08C03195219571
:10065000310929833A8301E010E002C000E010E094
:10066000E9A1FAA13197E20DF31D22E030E08AE022
:10067000E82EF12CCF018219930949815A81452B2B
:1006800091F089819A81B7010E94F30E805D829377
:1006900069837A83215031094B815C814150510932
:1006A0004B835C83E7CF121613065CF3FC01319792
:1006B000E20DF31D012B11F42BE201C02DE220838A
:1006C0000297B101680F791F288D398D21543109A6
:1006D0002A31310510F025E601C025E4FB01208315
:1006E0002B813C81225031092B833C8348165906CB
:1006F00024F48D819E810E943410398531FF29C0F8
:1007000030FD27C04B815C811416150614F5C1011C
:100710000E943B0F820D931D9C01221933094889C9
:100720005989241735074CF0FC012081EB81FC81AD
:10073000E80FF91F20830197EFCF4B815C8160E3C5
:1007400070E088899989820D931D0E94EB0F1A8AA7
:100750001B8AC1010E943B0F09851A852A893B89A2
:10076000AC01B1018F8D98A10E94960BA696E2E193
:100770000C947F0E598553FFFECC80E2EFCC89812B
:100780009A818C3F9F4F54F0E981FA812D813E81FF
:10079000E217F3070CF4C3CD35E604C0F5E6FF8796
:0807A000E3CD36E63F87E0CD12
:1007A800AEE0B0E0EAEDF3E00C94510E4C016B01C1
:1007B80019821A828FEF9FEF8B839C831D821E8282
:1007C8004F83588729873A87A12CB12CD6016D9081
:1007D8007C90F301EA0DFB1D808181110FC0D601C9
:1007E800ED93FC938081853209F03CC13F01BFEF56
:1007F8006B1A7B0AF6016082718219C0853279F31F
:10080800B401082E000C990B0E944A0A4FEFA41A53
:10081800B40ADCCF8C32ACF08D32F9F489819A813C
:10082800816089839A833196D601ED93FC93D60132
:10083800ED91FC9180818B3269F789819A8184607E
:10084800F0CF803221F489819A818860EACF83329F
:1008580051F489819A818061E4CF803321F48981C0
:100868009A818260DECFB701C6010E94BA0C8D83DF
:100878009E8397FF0BC029813A81B1E02B272983FA
:100888003A839195819591098D839E8389819A8177
:1008980080FF03C08D7F89839A83D601ED91FC91F7
:1008A800119780818E3249F43196ED93FC93B7010C
:1008B800C6010E94BA0C8B839C83C6010E94B80DA6
:1008C800582ED601ED91FC918081082E000C990BD1
:1008D8000E942C10893609F42FC084F4833609F459
:1008E80087C034F4853209F494C08136E1F09DC0A4
:1008F800843611F188360CF472C097C0803709F439
:1009080044C03CF48E3609F45AC08F3609F42DC021
:100918008CC0853709F41EC0883709F42FC0833787
:1009280009F083C06CC00E94C70F09F499C00E94E7
:10093800CF100E94000091C0652D70E0970141E042
:1009480050E00E948F1009F48BC00E94CA100E94C8
:100958002D0983C00E94041009F482C00E94FC0F74
:100968000E9420110E94070C78C00E94041009F40C
:1009780077C00E94CA100E94DA0A6FC00E94041051
:1009880009F46EC00E94820F15C0970140E050E044
:1009980060EF70E00E948F1009F462C00E9423117A
:1009A8008B859C85892B29F420E030E049E352EAC5
:1009B8004EC028E70E9420110E943B054EC0A501A9
:1009C800400F511F652D70E09701CE010B960E94D4
:1009D8000000892B09F444C00E94FC0F43C00E9408
:1009E800C70F09F43DC00E94CF100E94780035C09F
:1009F800B0E85B1235C00E948910808114C0B0E84D
:100A08005B122EC00E9489104081518120E030E0A5
:100A18001EC0B0E85B1224C0F601208131812F5F2F
:100A28003F4F208331838B870DC085E28B87D601AA
:100A38006D927C9219821A821D821E828FEF9FEF1F
:100A48008B839C8321E030E0AE01455F5F4FBE01A0
:100A58006F5F7F4FC4010E94900C8A0D9B1D03C0DD
:0E0A68000E942311C5012E96EFE00C94820E21
:100A7600AFE0B0E0E1E4F5E00C944E0E1C016B0132
:100A860049835A832B83FB018281938184809580DD
:100A960000811181A680B78097FD02C00D7F02C03C
:100AA60081E090E0E981FA81408051806280738024
:100AB6009801207133272C833D83740104FF08C0FD
:100AC600411451046104710419F032E0E31AF1088B
:100AD600F801E870FF27EE83FF8303FF03C0F1E010
:100AE600EF1AF108F6010084F185E02D3197EE87C3
:100AF600FF87EA0DFB1D10829C012E193F092887EE
:100B06003987C801827099278A879B87EB818E2F48
:100B1600EE0F990B9C01215431092C873D872E85B8
:100B26003F852230310530F48C819D81892B09F077
:100B360042C05CC0411451046104710461F18E85A8
:100B46009F8501978E879F87C2018F7099278A306C
:100B5600910514F4C09602C0895A9F4FEC85FD8515
:100B66007A9748F49C012062215631092A313105D1
:100B760010F40E94E20FEE85FF85EA0DFB1D8083CF
:100B8600F1E0EF1AF10884E076946794579447945D
:100B96008A95D1F7C4CF888599858E0D9F1D181625
:100BA60019066CF21E141F040CF0BECFEA85FB85F5
:100BB600EF2B29F6B9CFE981FA8180819181A28153
:100BC600B381892B8A2B8B2B89F0EE85FF85EA0D65
:100BD600FB1D31972B8120838E859F8502978E87FB
:100BE6009F87FC01EA0DFB1D80E38083EE81FF8178
:100BF600EF2B59F02E853F85215031092E873F87EF
:100C0600F901EA0DFB1D80E28083F60140855185DE
:100C1600415051092E853F85421B530BB9016A0D80
:100C26007B1D9401C1010E94960B9C01F1018081FC
:100C3600918190FF03C00E9495100CF4C9012F9674
:060C4600E2E10C947F0EB8
:100C4C000E94DD0E0E94B91089E18093840687E62C
:100C5C00282E83E9382E02E813E99EEBE92E93E95E
:100C6C00F92E2AEAC22E23E9D22E38EDA32E33E92F
:100C7C00B32E4EEC842E43E9942E88958091020677
:100C8C0087708430C1F128F48823B9F08230A9F040
:100C9C0068C0863009F456C0E8F1873009F061C0AD
:100CAC003F922F920E94970E0E9451100E94CF0BE0
:100CBC002FE632E143E85AE33BC082E293E99F938B
:100CCC008F930E94970E0E9451100E94CF0B20E030
:100CDC0030E040E859E30E94151120E030E048EC88
:100CEC0052E40E941511762E672E582E492E0F9025
:100CFC000F90C5E243C08CE393E99F938F930E94BE
:100D0C00970E0E9451100E94CF0B2FE632E143E860
:100D1C0059E30EC08BE493E99F938F930E94970E37
:100D2C000E9451100E94CF0B2FE632E143E05AE3B0
:100D3C000E941511762E672E582E492E0F900F906B
:100D4C00C6E51CC08AE593E99F938F930E94970E8A
:100D5C000E9451100E94CF0B20E030E040E25AE399
:100D6C00E7CF86E793E99F938F930E94970E0F909E
:100D7C000F90C6E5712C612C512C412C0E94511006
:100D8C007F936F931F930F930E94970E0E94B40F43
:100D9C000F900F900F900F90882369F00E946C0FAA
:100DAC001F928F93DF92CF920E94970E0F900F900D
:100DBC000F900F9006C0FF92EF920E94970E0F902B
:100DCC000F900E94E30CC63539F44F925F926F92EC
:100DDC007F929F928F9208C0C53271F44F925F92AE
:100DEC006F927F92BF92AF920E94970E0F900F90CE
:100DFC000F900F900F900F900E9424108111FCCF38
:020E0C003CCFD9
:100E0E004F925F926F927F928F929F92AF92BF920C
:100E1E00CF92DF92EF92FF92CF93DF93CDB7DEB7F3
:100E2E002897CDBFDEBF6B017C01DC01CB0147E112
:100E3E00B695A795979587954A95D1F799278F5788
:100E4E009109873191056CF597FD30C088248A94FD
:100E5E00982C3FE7A32EB12C04C0B594A794979479
:100E6E0087948A95D2F7D501C4018C219D21AE219C
:100E7E00BF21892B8A2B8B2BA1F00E94BE0F6D8375
:100E8E007E838F839887F7FE04C0C80CD91CEA1C9A
:100E9E00FB1C80949094A094B094C820D920EA2092
:100EAE00FB205C2D4D2D3E2D2F2D1BC00E94BE0F05
:100EBE0069837A838B839C83F7FE0FC0D701C601AB
:100ECE00880F991FAA1FBB1F892B8A2B8B2B49F3C7
:100EDE0050E040E030E82FEB04C050E040E030E05E
:100EEE0020E0652F742F832F922F2896CDBFDEBF63
:100EFE00DF91CF91FF90EF90DF90CF90BF90AF90AA
:0E0F0E009F908F907F906F905F904F9008950E
:100F1C0010C00E947B1058F00E94741040F029F40D
:100F2C005F3F29F00C94BF1051110C9483100C945A
:100F3C0026110E94530D68F39923B1F3552391F3B5
:100F4C00951B550BBB27AA2762177307840738F02C
:100F5C009F5F5F4F220F331F441FAA1FA9F333D08B
:100F6C000E2E3AF0E0E830D091505040E695001C3F
:100F7C00CAF729D0FE2F27D0660F771F881FBB1FFB
:100F8C00261737074807AB07B0E809F0BB0B802DD5
:100F9C00BF01FF2793585F4F3AF09E3F510568F011
:100FAC000C94BF100C9483105F3FE4F3983ED4F381
:100FBC0086950E94C5109F5FD9F7880F911D969555
:100FCC00879597F90895E1E0660F771F881FBB1F7F
:100FDC00621773078407BA0720F0621B730B840B2C
:0A0FEC00BA0BEE1F88F7E095089598
:100FF6000FC00E94741038F00E947B1020F09523D9
:1010060011F00C94BF100C94261111240C9483102B
:101016000E94530D70F3959FC1F3950F50E0551F35
:10102600629FF001729FBB27F00DB11D639FAA2737
:10103600F00DB11DAA1F649F6627B00DA11D661F86
:10104600829F2227B00DA11D621F739FB00DA11DA7
:10105600621F839FA00D611D221F749F3327A00D61
:10106600611D231F849F600D211D822F762F6A2FFD
:1010760011249F5750409AF0E1F088234AF0EE0F72
:10108600FF1FBB1F661F771F881F91505040A9F78F
:101096009E3F510570F00C94BF100C9483105F3F77
:1010A600E4F3983ED4F386950E94C510E7959F5FBA
:1010B600D1F7FE2B880F911D9695879597F9089580
:1010C60011C00E94741038F00E947B1020F039F491
:1010D6009F3F19F426F40C9426110EF4E095E7FBD5
:1010E6000C94BF10E92F0E94530D58F3BA176207EC
:1010F60073078407950720F079F4A6F50C948210FF
:101106000EF4E0950B2EBA2FA02D0B01B90190011C
:101116000C01CA01A0011124FF27591B99F0593F60
:1011260050F4503E58F11A16F040A22F232F342FB8
:101136004427585FF3CF469537952795A795F040F6
:101146005395C9F77EF41F16BA0B620B730B840B0B
:10115600AAF0915091F0FF0FBB1F661F771F881FE3
:10116600C2F70CC0BA0F621F731F841F38F487952D
:101176000E94C5109E3F08F0B2CF9395880F08F0E5
:0A1186009927EE0F979587950895BD
:10119000A0E0B0E0EEECF8E00C94500EDC01280189
:1011A0001696AD90BC901797F701808191811296A9
:1011B000ED91FC9113971896CD91DC911997219799
:1011C000F7FF02C0E1E0F0E0CA0DDB1D1882690103
:1011D000A1E0B0E08F01021B130B4C01F2E08F2263
:1011E0009924052C000C66087708CE018A199B0902
:1011F000CA15DB0519F1411551056105710589F025
:10120000CB01BA01A30192010E94750DCA01A62F5C
:10121000B72F605D6A9341E0C41AD108A901BC01EF
:10122000E4CF98012C0D3D1D121613064CF31C142F
:101230001D0434F48114910419F702C080E090E099
:10124000AB2B31F4F701208131812F7E2083318354
:0A125000CDB7DEB7E0E10C94810E8B
:10125A00A2E0B0E0E3E3F9E00C944E0E3C010E94F8
:10126A00ED10A480B5800E94E81086809780FA016C
:10127A002080318042805380B201A10157FE07C00D
:10128A0044275527BA01421953096409750937FDDC
:10129A0003C08D7F89839A83950157FC05C0898194
:1012AA0082FD02C083FF02C021503109CE0101969E
:1012BA007C010AE010E0C6010E94C80857FC03C07E
:1012CA00298122FF0AC00197F401E80FF91F57FC90
:1012DA0002C02BE209C02DE207C023FF06C0019716
:1012EA00F401E80FF91F20E220830E94960FB4014F
:1012FA00680F791F9501C3010E94960B9C01F301A7
:10130A008081918190FF03C00E9495100CF4C9015D
:08131A002296E2E10C947F0E23
:1013220052656C6174697665204D6561737572658D
:101332006D656E74204D6F64650056726566206936
:101342007320312E3032345600567265662069732E
:1013520020322E303438560056726566206973206A
:10136200322E3556005672656620697320342E304F
:101372003936560056726566206973203F3F3F003A
:101382000A0D414443205261772056616C756520F5
:1013920069732025690A0D4D656173757265642054
:1013A2005369676E616C20002877697468206761F1
:1013B200696E206F66202569293A200028776974B2
:1013C20068204E4F20504741293A2000252E33668F
:1013D200560A0D0A0D00252E316625250A0D0A0D25
:0113E200000A
:0113E3000108
:1013E400CF93DF93DC01F90168387105D1F05CF427
:1013F4006138710521F16438710561F16038710556
:1014040009F041C027C0603C710509F435C0603F54
:10141400710591F1603A710509F035C00E944310DD
:101424001DC00E944310452B39F04881042E000C46
:10143400550B660B770B18C0488150E021C0C08162
:10144400D181CE01049680839183488159816A8138
:101454007B810AC00E944310452B81F04881598149
:10146400052E000C660B770B4D935D936D937C9367
:10147400139781E090E009C00E944310488159818C
:1014840060E070E0F1CF80E090E0DF91CF910895CB
:101494000F931F93CF93DF93DB012D913C91119711
:1014A40030FF25C016964D915C91179714962D9197
:1014B4003C9115974217530778F41296ED91FC91DD
:1014C4001397808312962D913C9113972F5F3F4F72
:1014D40012962D933C93139716962D913C91179742
:1014E4002F5F3F4F16962D933C93179715C01C966C
:1014F400ED91FC911D97309719F48FEF9FEF0CC07D
:101504008B01EC010995892BC1F7F801868197813C
:10151400019686839783CE01DF91CF911F910F911E
:02152400089528
:10152600CF93DF930E94320EC0E0D4E01882A0E28F
:10153600B4E084E08C93E0E4F4E010821C8214961C
:101546001C9214971482188A198A1A8A1B8A1C8A72
:101556008D8B8E8B8F8B50961C92509751961C922A
:10156600519752961C92529753961C9253975496A3
:101576001C92549755961C92559756961C925697C0
:1015860057961C92108A118A128A138A88E0848BD5
:10159600158A168A178AE0EEF5E0118282E08083CA
:0E15A6001382148215821282DF91CF91089574
:1015B400A2E0B0E0E0EEFAE00C94520E4C010E947E
:1015C400ED10648075800E94E810A680B78037FD16
:1015D40003C08D7F89839A830E94D00F08E010E0B6
:1015E4009301C6010E94C808298124FF06C00197FF
:1015F400F501E80FF91F20E32083298123FF06C0AA
:101604000197F501E80FF91F20E220830E94960F4D
:10161400B501680F791F9301C4010E94960B9C01C8
:10162400F4018081918190FF03C00E9495100CF415
:0A163400C9012296EEE00C94830E2B
:10163E00A2E8B0E0E5E2FBE00C94540E5C014A0136
:10164E00CF57DF4F68837983C158D040C12CD12C3E
:10165E00CF57DF4FE881F981C158D0408081882370
:10166E00E9F07401860120E830E0AE014F5F5F4F74
:10167E00BE016F577F4FC5010E94D4038C0D9D1D77
:10168E008C159D054CF48FE490E080930038909378
:10169E0001388FEF9FEF03C06C01DACFC601CE5732
:0816AE00DF4FECE00C94850E07
:1016B6001F920F920FB60F9211242F933F934F93C1
:1016C6005F936F937F938F939F93AF93BF93EF93A4
:1016D600FF938091430180FF07C0E0911638F09197
:1016E6001738309709F009958091430181FF07C0AB
:1016F600E0911438F0911538309709F0099583E098
:1017060080934301FF91EF91BF91AF919F918F918C
:101716007F916F915F914F913F912F910F900FBEE7
:061726000F901F901895C2
:10172C00A0E0B0E0ECE9FBE00C94540E6C015B0122
:10173C007A01E901480181E08822992400FD03C067
:10174C004217530750F0A701B501C6010E94F80DCE
:10175C00EC16FD0610F0C70117C08E010E191F09FB
:10176C000115110541F0B60180E290E00E944A0A91
:10177C0001501109F5CF8114910429F4A701B50189
:10178C00C6010E94F80DCE01CDB7DEB7ECE00C948B
:02179C00850EB8
:10179E00E89404C097FB16F40E94F40F9923A9F065
:1017AE00F92F96E9BB279395F695879577956795CB
:1017BE00B795F111F8CFFAF4BB0F11F460FF1BC00F
:1017CE006F5F7F4F8F4F9F4F16C0882311F096E9A2
:1017DE0011C0772321F09EE8872F762F05C0662350
:1017EE0071F096E8862F70E060E02AF09A95660F09
:1017FE00771F881FDAF7880F9695879597F90895C2
:10180E00A2E0B0E0EDE0FCE00C94520E5C010E9410
:10181E00ED10848095800E94E8106680778037FDF9
:10182E0003C08D7F89839A830E94D00F0AE010E057
:10183E009401C6010E94C8080E94960FB301680F5A
:10184E00791F9401C5010E94960B9C01F5018081C0
:10185E00918190FF03C00E9495100CF4C90122964D
:06186E00EEE00C94830E75
:101874001F920F920FB60F9211242F933F934F9301
:101884005F936F937F938F939F93AF93BF93EF93E4
:10189400FF93E0911238F0911338309709F00995CD
:1018A40081E080935301FF91EF91BF91AF919F919C
:1018B4008F917F916F915F914F913F912F910F90F5
:0818C4000FBE0F901F90189554
:1018CC000E945B0D88F09F5798F0B92F9927B7515C
:1018DC00B0F0E1F0660F771F881F991F1AF0BA95C8
:1018EC00C9F714C0B13091F00E948210B1E0089594
:1018FC000C948210672F782F8827B85F39F0B93F86
:10190C00CCF3869577956795B395D9F716F40E9425
:04191C00F40F089527
:10192000A0E0B0E0E6E9FCE00C94560E7C01FB017F
:10193000EA01C901A280B380C480D58000811181F1
:10194000209711F4C2E3D2EA009719F4CE010E9465
:101950003B0FB7FC04C0A816B90608F4C5019601F0
:10196000AC01BE01C7010E94960BCDB7DEB7EAE01D
:041970000C94870E3E
:10197400DC01ED91FC91119780818A3221F080E0A5
:1019840090E03AE009C03196ED93FC93DB010E94AC
:101994001410808191810895ED91FC91119720811B
:1019A40020532A3068F4389FA001399F500D112428
:1019B400CA01820F911D3196ED93FC931197ECCFE0
:0219C400089584
:1019C60080911C38823099F040F4882369F0813088
:1019D600A9F40E94D90F80E00FC0843061F048F06E
:1019E600853061F480E808C00E94B91007C080E223
:1019F60003C080E401C080E60E94581080911C3824
:101A0600853019F410921C3808958F5F80931C3826
:021A1600089531
:101A1800990F0008550FAA0BE0E8FEEF16161706F7
:101A2800E807F907C0F012161306E407F50798F05F
:101A3800621B730B840B950B39F40A2661F0232B78
:101A4800242B252B21F408950A2609F4A140A695F4
:081A58008FEF811D811D08952F
:101A6000E0E4F1E0809141018111FACF87EE93E04B
:101A700084879587108611868FEC97E082879387FD
:101A80001092420181E08093470181E880934001F8
:101A9000809151018111FCCF1092520181E6809317
:061AA000500180E00895F2
:101AA60057FD9058440F551F59F05F3F71F0479509
:101AB600880F97FB991F61F09F3F79F087950895EE
:101AC600121613061406551FF2CF4695F1DF08C00D
:101AD600161617061806991FF1CF8695710561052A
:041AE60008940895C3
:101AEA00A1E21A2EAA1BBB1BFD010DC0AA1FBB1F18
:101AFA00EE1FFF1FA217B307E407F50720F0A21B8A
:101B0A00B30BE40BF50B661F771F881F991F1A94F6
:101B1A0069F760957095809590959B01AC01BD0120
:041B2A00CF0108954A
:101B2E00E0E8F1E08AE0808B118A128A138A148A27
:101B3E00158A81E0808380A710A211A212A213A29F
:101B4E0014A215A216A217A211A682A713A616A654
:101B5E0017A610AA11AA12AA13AA14A615A680E0F7
:021B6E000895D8
:101B7000CF93DF93EC0190E0E92FF0E0EE0FFF1F31
:101B8000E455F1468081811102C081810EC0A88197
:101B9000B9812C91821305C091811196A883B983D4
:101BA00001C09F5F9B3040F3892FDF91CF91089553
:101BB000FA0160387105CCF0623871051CF06338A9
:101BC000710599F4A081B1819D012C5F3F4F208365
:101BD00031834D915D916D917C91FC0140835183E6
:101BE0006283738381E090E0089580E090E008953F
:101BF000A0E0B0E0EEEFFDE00C94580E6C01EB01BC
:101C00008A017B01E40EF51ECE15DF0541F08991B6
:101C1000B601082E000C990B0E944A0AF5CFC801A4
:0A1C2000CDB7DEB7E8E00C94890EA2
:101C2A00E0E0F6E088E08183118686E5828313820C
:101C3A0084E0808789E1838781E0878394E19287C2
:101C4A00848383E3848780E78587168E178E148EB4
:0A1C5A00158E81E8808380E0089574
:101C6400E0E1F4E0808188608193E83184E0F80762
:101C7400C9F7E0E3F4E0808188608193E83384E08D
:101C8400F807C9F7E0E5F4E0808188608193E835DE
:081C940084E0F807C9F7089588
:101C9C002F923F924F925F926F927F928F929F9270
:101CAC00AF92BF92CF92DF92EF92FF920F931F935E
:101CBC00CF93DF93CDB7DEB7CA1BDB0BCDBFDEBF37
:021CCC00099479
:101CCE00E0E0F8E08BE591E080879187158280E473
:101CDE00868383E087831386148616861586E091A5
:101CEE001838F091193882E098E380839183089533
:101CFE002A88398848885F846E847D848C849B848E
:101D0E00AA84B984C884DF80EE80FD800C811B819B
:101D1E00AA81B981CE0FD11DCDBFDEBFED010895D1
:101D2E00A0E0B0E0EDE9FEE00C945E0EAE014B5F7C
:101D3E005F4FFA0161917191AF01E0911838F09106
:101D4E001938808191810E94AF0EE2E00C948F0EC3
:101D5E00A2E0B0E0E5EBFEE00C945C0E8C01498352
:101D6E005A83AE014F5F5F4F0E941F0BF801208117
:101D7E0024FF02C08FEF9FEF2296E4E00C948D0EAD
:101D8E0060E088E70E9409118CE70E94091180E744
:101D9E000E940D1161E081E60E94091180E60E9409
:0C1DAE00091182E60E940D1180E00895EA
:101DBA000E94930A0E94AA0F0E94C70E0E94B310A3
:101DCA000E945F100E94970D0E94A00F0E94150E9C
:0C1DDA000E94300D0E94490F0C94670E0F
:101DE60097FB072E16F4009407D077FD09D00E94C2
:101DF600070F07FC05D03EF4909581959F4F0895F7
:081E0600709561957F4F08956E
:101E0E00AA1BBB1B51E107C0AA1FBB1FA617B70712
:101E1E0010F0A61BB70B881F991F5A95A9F780952E
:081E2E009095BC01CD0108955F
:101E3600092E0394000C11F4882352F0BB0F40F4D2
:101E4600BF2B11F460FF04C06F5F7F4F8F4F9F4F12
:021E56000895ED
:101E58008F93EF93FF93E0E0F6E080E2858380E1E3
:0E1E6800858388E08583FF91EF918F91189517
:101E7600FC01AF014F5F5F4F2081222311F0FA0171
:0C1E8600F8CF9F01281B390BC9010895FB
:101E920040E068ED80E191E00E940111E0E1F1E0B3
:0A1EA20012821382789480E0089504
:101EAC0068076C094C836A9074A07AC000806888BB
:061EBC0000846C8200812D
:101EC2008C199D09AE09BF090196A11DB11D039789
:061ED200A105B105089511
:101ED80090910B0692959695977081E001C0880FB6
:061EE8009A95EAF7089547
:101EEE00EC010E942E110E942D11CE010E942F1185
:061EFE00CE010E942B1131
:101F0400D601ED91FC911197CF0101968D939C938D
:041F1400208108958B
:101F1800330B2154310988899989820D931D2A31FF
:041F280031050895E2
:101F2C0009811A81F6014085518541505109481BA0
:041F3C00590B0895A0
:101F4000E0E8F6E0168283E0828310828FEF8483DC
:041F500080E0089590
:101F540060E080E80E940D11E0E8F0E01186108650
:041F640080E008957C
:101F680090910C06929596959695937081E009F458
:041F780080E0089568
:101F7C0020E030E040E85BE7C701B6010E94671043
:021F8C000895B6
:101F8E00652D70E0A701CE010B960E94D80D892B0E
:021F9E000895A4
:101FA000FA014081518162817381CE0101967C01E9
:021FB000089592
:101FB200E0E0F6E084858F7384878485806484877B
:021FC200089580
:101FC4009C01215631092A31310510F48F75992766
:021FD40008956E
:101FD600FC01480F591FE417F50711F06193FBCF79
:021FE60008955C
:101FE80090958095709561957F4F8F4F9F4F08957D
:101FF800D6018D919C91119701968D939C9308958C
:10200800652D70E0970140E050E00E948F10089520
:10201800AE01455F5F4FBE016F5F7F4FC4010895FA
:10202800ED91FC911197CF0102968D939C930895A1
:10203800494E4600696E66004E414E006E616E0064
:102048008091040886FB882780F991E08927089504
:102058009C01215431092A31310508F48062089520
:10206800FC01DB012D91BD0121932111FACF0895C7
:0E207800F60180819181019680839183089505
:0E208600C081D181CE0102968083918308959E
:0E2094009091040895FFFCCF809302080895F8
:0E20A200E0E1F6E06081718182819381089512
:0E20B000E0E0F6E093859F71892B8387089509
:0E20BE00E0EAF0E0108281E0818380E0089586
:0E20CC005058BB27AA270E9463080C941B0FD4
:0E20DA000E94660C6894B1110C948310089556
:0E20E80000240A941616170618060906089515
:0E20F60000240A941216130614060506089517
:0E210400E894BB2766277727CB0197F908954B
:0C2112000E943C10D7010E941410089598
:0C211E00CE010B960E94F209892B089557
:0C212A00F60182819381821793070895CB
:0C2136008F9382E0809305068F9118952E
:0C2142008F9381E0809305068F91189523
:0C214E008F9381E0809387068F91189595
:0C215A008F9381E080938A008F9118958C
:0C21660061E080E50E940D1180E008950A
:0C217200E0E0F6E084858F738487089518
:0C217E0097F99F6780E870E060E008952A
:0A218A0077956795B795F7950895CE
:0A2194000E943C100E940C100895F8
:0A219E000E94820F0E940C100895A9
:0A21A8000E94E310C701B60108957C
:0A21B2006B857C858D859E85089560
:0A21BC00612F7DA18BA1902F0895E3
:0A21C60020E030E040E251E408950B
:0A21D0008081918189839A8308952C
:0A21DA006B01FB012281338108959F
:0A21E4000E944A1080E090E0089588
:0A21EE000E940C0D08F481E0089532
:0A21F8000E940C0D08F48FEF08950B
:08220200FC0164BF4083089554
:08220A00462F68ED0C94011150
:082212000E940D1160E0089527
:08221A0090E00E9405110895F7
:082222000E948E070C941B0FB3
:08222A000E94FB070C941B0F3E
:07223200286E756C6C290099
:06223900286E696C29000B
:062240000E940C1008953D
:062246000E943C10089507
:06224C009FEF80EC0895F5
:042252000C940000E8
:042256000E9476006C
:02225A000895E5
:02225C000895E3
:02225E000895E1
:10226000030000000000000000000000F210000069
:022270001A381A
:02000004008278
:090000000000020000C40700002A
:00000001FF
