:100000000C9445000C94290A0C9469090C9453072C
:100010000C94C6070C94290A0C94290A0C94290AFA
:100020000C94290A0C94290A0C94290A0C94290A84
:100030000C94290A0C94290A0C94290A0C94290A74
:100040000C94290A0C94290A0C94290A0C94290A64
:100050000C94290A0C94CA080C945A090C944B0964
:100060000C94290A0C94290A0C94290A0C94290A44
:100070000C94290A0C94290A38003806803806386E
:10008000140014563814381A800011241FBECFEF04
:10009000CDBFDFE3DEBFE8E7F0E040E017C0B59199
:1000A000A59135912591059107FD0CC095918591FC
:1000B000EF01F92FE82F05900D92A217B307D9F79A
:1000C000FE0104C01D92A217B307E1F7E938F40757
:0E00D00031F70E949B040C946D00F894FFCF52
:0800DE006E616E00696E6600A0
:1000E600A0E1B0E0E9E7F0E00C94B1087C011B0167
:1000F6006A01FC0116821782838181FF20C39E015B
:100106002F5F3F4F3901F7019381F1010E94000AE9
:10011600882309F410C3853221F40E94000A85322F
:1001260039F4B70190E00E94170756016501EBCF3D
:1001360010E0512C912CFFE1F915D8F08B3279F0B3
:1001460038F4803279F08332A1F4F92DF0612EC0B3
:100156008D3261F0803369F4292D21602DC0392D4F
:100166003260932E892D8460982E2AC0E92DE8608E
:1001760015C097FC2AC020ED280F2A3088F496FE79
:1001860006C03AE0139F200D1124122F19C08AE0F1
:10019600589E200D1124522EE92DE0629E2E10C08D
:1001A6008E3231F496FCC7C2F92DF0649F2E08C03A
:1001B6008C3621F4292D2068922E02C0883629F427
:1001C600F1010E94000A8111B6CF9BEB980F933084
:1001D60020F4992D9061805E07C09BE9980F9330BB
:1001E60008F061C1992D9F7E96FF16E09F73992EA8
:1001F600853619F49064992E08C0863621F4392F75
:100206003068932E02C01111115097FE07C01C339F
:1002160050F444244394410E27E00BC0183038F0C4
:1002260027E017E005C027E09CE3492E02C0212FF6
:10023600412C560184E0A80E0E94C109042DA30199
:100246000E94CB036C01F981FC87F0FF02C0F3FF2B
:1002560006C091FC06C092FE06C000E205C00DE293
:1002660003C00BE201C000E08C858C7019F001110F
:1002760044C283C297FE10C04C0CFC85F4FF04C038
:100286008A81813309F44A94141474F528E02415FC
:1002960078F588E0482E2CC096FC2AC0812F90E085
:1002A6008C159D059CF03CEFC3163FEFD30674F00A
:1002B600892D8068982E0AC0E2E0F0E0EC0FFD1F61
:1002C600E10FF11D8081803319F411501111F4CF23
:1002D60097FE0EC044244394410E812F90E0C81629
:1002E600D9062CF41C1904C04424439401C010E020
:1002F60097FE06C01C141D0434F4C601019605C001
:1003060085E090E002C081E090E0011101961123A2
:1003160031F0212F30E02F5F3F4F820F931F252DA5
:1003260030E08217930714F4581A01C0512C892D16
:10033600897041F4552031F00E94160A0E94170771
:100346005A94F8CF002329F0B701802F90E00E943D
:10035600170793FC09C0552039F0B70180E390E0F8
:100366000E9417075A94F7CF97FE4CC04601D7FE56
:1003760002C0812C912CC60188199909F301E80F56
:10038600F91FED87FE879601241931092F87388BCF
:10039600012F10E01195019511093FEF8316930681
:1003A60029F4B7018EE290E00E941707C814D90419
:1003B6004CF08F8598898815990524F4ED85FE857E
:1003C600818101C080E3F1E08F1A91082D853E8579
:1003D6002F5F3F4F2D873E87801691062CF0B70181
:1003E60090E00E941707D9CFC814D90441F49A8126
:1003F600963320F4953319F43C8534FF81E3B70135
:1004060090E04EC08A81813319F09C859F7E9C873F
:10041600B70190E00E941707111105C094FC18C09F
:1004260085E690E017C0B7018EE290E00E941707BC
:100436001E5F82E001E0080FF301E80FF11D8081E5
:10044600B70190E00E941707802F0113F3CFE6CF84
:1004560085E490E0B7010E941707D7FC06C0C114D7
:10046600D10441F4EC85E4FF05C0D194C194D108D0
:100476008DE201C08BE2B70190E00E94170780E38E
:100486002AE0C216D1042CF08F5FFAE0CF1AD10809
:10049600F7CFB70190E00E941707B701C601C096D3
:1004A6000E9417073FC1833631F0833779F08335D1
:1004B60009F053C01EC0560132E0A30EB11CF6016E
:1004C6008081898301E010E0630110C056010E941B
:1004D6000C0AC080D18096FE03C0612F70E002C076
:1004E6006FEF7FEFC6010E94A6098C01F92DFF77F9
:1004F60014C0560122E0A20EB11CF601C080D180C4
:1005060096FE03C0612F70E002C06FEF7FEFC60159
:100516000E949B098C01F92DF0689F2EF3FD19C0EE
:10052600852D90E008171907A0F40E94160A0E946C
:1005360017075A94F5CFF60197FC859197FE81919E
:100546006F01B70190E00E94170751105A940150AD
:1005560011090115110579F7E5C0843611F08936C0
:1005660009F5560197FE05C024E0A20E0E94C109B6
:1005760008C00E940C0A60817181072E000C880B4E
:10058600990BF92DFF769F2E97FF04C00E94B109A3
:10059600F0689F2E2AE030E0A3010E942606C82EAE
:1005A600C61839C0092D853721F40F7E2AE030E0C0
:1005B6001DC0097F8F3691F018F4883559F0BBC0FD
:1005C600803719F0883711F0B6C0006104FF09C002
:1005D600046007C094FE08C0066006C028E030E04C
:1005E60005C020E130E002C020E132E0560107FFFD
:1005F60005C084E0A80E0E94C10906C00E940C0A2C
:100606006081718180E090E0A3010E942606C82ED9
:10061600C6180F77902E96FE0BC0092D0E7FC116B9
:1006260050F494FE0AC092FC08C0092D0E7E05C047
:10063600DC2C092D03C0DC2C01C0D12E04FF0DC01B
:10064600FE01EC0DF11D8081803311F4097E09C095
:1006560002FF06C0D394D39404C0802F867809F095
:10066600D39403FD10C000FF06C01C2DD51478F4EA
:10067600150D1D190CC0D51450F40E94160A0E94BF
:100686001707D394F8CFD51410F45D1801C0512C78
:1006960004FF10C0B70180E390E00E94170702FF35
:1006A60017C001FD03C088E790E002C088E590E02E
:1006B600B7010CC0802F867859F001FF02C08BE28B
:1006C60001C080E207FD8DE2B70190E00E941707A6
:1006D600C11638F4B70180E390E00E941707115065
:1006E600F7CFCA94F301EC0DF11D8081B70190E0BC
:1006F6000E941707C110F5CF15C0F4E0F51550F5A7
:1007060084E0581A93FE1EC0011125C02C8523FFD4
:1007160028C00EED10E0392D3071932EF80184912A
:10072600811122C0552009F401CD0E94160A0E94AB
:1007360017075A94F7CFF7018681978125C08FEF67
:100746009FEF22C00E94160A0E9417075A94511062
:10075600F9CFDACF512CB701802F90E00E9417070E
:10076600D5CF02EE10E0D7CF91108052B70190E0BE
:100776000E9417070F5F1F4FD1CF23E0251510F4F6
:1007860083E0BFCF512CC2CF6096E2E10C94E20821
:10079600283008F027E03327DA01990F311D87FD4D
:1007A600916000966105710539F432602E5F3D93C4
:1007B60030E32A95E1F708959F3F30F080387105C0
:1007C600610509F03C5F3C5F3D93913008F080681D
:1007D600911DDF93CF931F930F93FF92EF92192FE3
:1007E600987F9695E92F96959695E90FFF27E852FB
:1007F600F54F99273327EE24FF24A701E70105903B
:100806000894079428F4360FE71EF81E491F511D59
:10081600660F771F881F991F0694A1F70590079406
:1008260028F4E70EF81E491F561FC11D770F881FB3
:10083600991F661F0694A1F70590079428F4F80EF1
:10084600491F561FC71FD11D880F991F661F771F87
:100856000694A1F70590079420F4490F561FC71F69
:10086600D81F990F661F771F881F0694A9F78491D2
:100876001095177041F0D695C79557954795F794FB
:10088600E7941A95C1F7EEE7FAE06894159015918A
:1008960035916591959105907FE273950E94C809FF
:1008A600E0F7E10CF11E431F561FC91FD01D7EF451
:1008B600703311F48A95EACFE894015030F0080FAE
:1008C6000AF40027021708F4202F2395022F7A3303
:1008D60028F079E37D932A95E9F70CC07D932A9554
:1008E600A9F60694979567953795179517940E94DC
:1008F600C80998F023957E9173957A3308F070E3D2
:100906007C932013B8F77E9170617D9330F08395C8
:1009160071E37D9370E32A95E1F71124EF90FF9040
:100926000F911F91CF91DF91992787FD909508959B
:100936000E94260902E31DE88FE3E82E8DE8F82ED3
:1009460098E0C92E9DE8D92E24E1A22E2DE8B22EDC
:100956003AE5832E3DE8932E8895809102068770AE
:100966008530D9F190F4882311F1843009F05AC00A
:10097600BF92AF920E9410090E94D6090E948E076C
:100986002FE632E143E859E336C08630F1F187308D
:1009960009F048C0FF92EF920E9410090E94D60902
:1009A6000E948E072FE632E143E85AE324C0DF9225
:1009B600CF920E9410090E94D6090E948E0720E05D
:1009C60030E040E859E30E94220A762E672E582E20
:1009D600492E0F900F90C5E232C083E29DE89F93A7
:1009E6008F930E9410090E94D6090E948E072FE657
:1009F60032E143E05AE30E94220A762E672E582EF1
:100A0600492E0F900F90C6E51AC01F930F930E94B0
:100A160010090E94D6090E948E0720E030E040E2CD
:100A26005AE3E9CF8EE49DE89F938F930E941009C5
:100A36000F900F90C6E5712C612C512C412C0E9411
:100A46009009282E0E94D6091F92CF934F925F924B
:100A56006F927F921F922F927F936F939F928F92A6
:100A66000E9410098DB79EB70C968DBF9EBF0E943F
:080A7600B9098111FCCF70CF1A
:100A7E0000407A10F35A00A0724E18090010A5D447
:100A8E00E80000E87648170000E40B54020000CAA4
:100A9E009A3B000000E1F5050000809698000000EA
:100AAE0040420F000000A086010000001027000049
:100ABE000000E803000000006400000000000A00CF
:100ACE00000000000100000000002C76D888DC67D2
:100ADE004F0823DFC1DFAE59E1B1B796E5E3E4532A
:100AEE00C63AE651997696E8E6C28426EB898C9B47
:100AFE0062ED407C6FFCEFBC9C9F40F2BAA56FA5E7
:100B0E00F490055A2AF75C936B6CF9676DC11BFC68
:100B1E00E0E40D47FEF520E6B500D0ED902E030083
:100B2E00943577050080841E080000204E0A0000D0
:100B3E0000C80C333333330F986E12831141EF8D8F
:100B4E002114893BE65516CFFEE6DB18D1844B38CF
:100B5E001BF77C1D901DA4BBE424203284725E2200
:0A0B6E008100C9F124ECA1E53D2748
:100B78000FC00E94EB0938F00E94F20920F095237B
:100B880011F00C94060A0C94260A11240C94FA0904
:100B98000E94150870F3959FC1F3950F50E0551FFB
:100BA800629FF001729FBB27F00DB11D639FAA27BA
:100BB800F00DB11DAA1F649F6627B00DA11D661F09
:100BC800829F2227B00DA11D621F739FB00DA11D2A
:100BD800621F839FA00D611D221F749F3327A00DE4
:100BE800611D231F849F600D211D822F762F6A2F80
:100BF80011249F5750409AF0F1F088234AF0EE0FE5
:100C0800FF1FBB1F661F771F881F91505040A9F711
:100C18009E3F510580F00C94060A0C94FA095F3F38
:100C2800E4F3983ED4F3869577956795B795F7954D
:100C3800E7959F5FC1F7FE2B880F911D96958795C5
:040C480097F908957B
:100C4C00FA01AA27283051F1203181F1E8946F93F1
:100C5C006E7F6E5F7F4F8F4F9F4FAF4FB1E03ED097
:100C6C00B4E03CD0670F781F891F9A1FA11D680F35
:100C7C00791F8A1F911DA11D6A0F711D811D911D68
:100C8C00A11D20D009F468943F912AE0269F1124DD
:100C9C003019305D3193DEF6CF010895462F477041
:100CAC00405D4193B3E00FD0C9F7F6CF462F4F709C
:100CBC00405D4A3318F0495D31FD4052419302D0FA
:100CCC00A9F7EACFB4E0A6959795879577956795A0
:100CDC00BA95C9F700976105710508959B01AC01A0
:100CEC000A2E06945795479537952795BA95C9F7C7
:0C0CFC00620F731F841F951FA01D089538
:100D0800567265662069732056646400567265667B
:100D180020697320312E30323456005672656620B1
:100D2800697320322E303438560056726566206951
:100D38007320322E3556005672656620697320344A
:100D48002E303936560056726566206973203F3F4B
:100D58003F000A0D414443205261772056616C756B
:100D6800652069732025690A0D4D65617375726583
:100D780064205664642F31302028776974682067AE
:100D880061696E206F66202569293A20252E336611
:070D980025630A0D0A0D009E
:100DA000CF93DF930E949508C0E0D4E01882A0E2C0
:100DB000B4E084E08C93E0E4F4E010821C821496AA
:100DC0001C9214971482188A198A1A8A1B8A1C8A00
:100DD0001D8A1E8A1F8A50961C92509751961C920B
:100DE000519752961C92529753961C925397549631
:100DF0001C92549755961C92559756961C9256974E
:100E000057961C92108A118A128A138A88E0848B62
:100E1000158A168A178AE0EEF5E0118282E0808357
:0E0E20001382148215821282DF91CF91089501
:100E2E000F931F93CF93DF93FB01238121FD03C00B
:100E3E008FEF9FEF2CC022FF16C046815781248171
:100E4E0035814217530744F4A081B1819D012F5F74
:100E5E003F4F208331838C93268137812F5F3F4F05
:100E6E002683378314C08B01EC01FB010084F185CE
:100E7E00E02D0995892BE1F6D80116968D919C915E
:100E8E001797019616968D939C931797CE01DF9127
:080E9E00CF911F910F910895FF
:100EA6001F920F920FB60F9211242F933F934F93D9
:100EB6005F936F937F938F939F93AF93BF93EF93BC
:100EC600FF938091430180FF07C0E0911838F091AD
:100ED6001938309709F009958091430181FF07C0C1
:100EE600E0911638F0911738309709F0099583E0AC
:100EF60080934301FF91EF91BF91AF919F918F91A5
:100F06007F916F915F914F913F912F910F900FBEFF
:060F16000F901F901895DA
:100F1C00E89404C097FB16F40E94B1099923A9F038
:100F2C00F92F96E9BB279395F69587957795679555
:100F3C00B795F111F8CFFAF4BB0F11F460FF1BC099
:100F4C006F5F7F4F8F4F9F4F16C0882311F096E92C
:100F5C0011C0772321F09EE8872F762F05C06623DA
:100F6C0071F096E8862F70E060E02AF09A95660F93
:100F7C00771F881FDAF7880F9695879597F908954C
:100F8C001F920F920FB60F9211242F933F934F93F2
:100F9C005F936F937F938F939F93AF93BF93EF93D5
:100FAC00FF93E0911438F0911538309709F00995BA
:100FBC0081E080935301FF91EF91BF91AF919F918D
:100FCC008F917F916F915F914F913F912F910F90E6
:080FDC000FBE0F901F90189545
:100FE400E0E4F1E0809141018111FACF87EE93E0D2
:100FF40084879587108611868FEC97E08287938784
:101004001092420181E08093470181E8809340017E
:10101400809151018111FCCF1092520181E680939D
:06102400500180E0089578
:10102A0057FD9058440F551F59F05F3F71F047958F
:10103A00880F97FB991F61F09F3F79F08795089574
:10104A00121613061406551FF2CF4695F1DF08C093
:10105A00161617061806991FF1CF869571056105B0
:04106A000894089549
:10106E00E0E8F1E08AE0808B118A128A138A148AF2
:10107E00158A81E0808380A710A211A212A213A26A
:10108E0014A215A216A217A211A682A713A616A61F
:10109E0017A610AA11AA12AA13AA14A615A680E0C2
:0210AE000895A3
:1010B00060E088E790E00E941E0A60E08CE790E024
:1010C0000E941E0A60E080E790E00E941E0A61E034
:1010D00081E690E00E941E0A60E080E690E00E94B7
:1010E0001E0A60E082E690E00E941E0A80E00895F9
:1010F000E0E0F6E088E08183118686E58283138252
:1011000084E0808789E3838781E0878394E1928705
:10111000848381E7848780E78587168E178E148EF7
:0A112000158E81E8808380E00895B9
:10112A00E0E1F4E0808188608193E83184E0F807A7
:10113A00C9F7E0E3F4E0808188608193E83384E0D2
:10114A00F807C9F7E0E5F4E0808188608193E83523
:08115A0084E0F807C9F70895CD
:101162002F923F924F925F926F927F928F929F92B5
:10117200AF92BF92CF92DF92EF92FF920F931F93A3
:10118200CF93DF93CDB7DEB7CA1BDB0BCDBFDEBF7C
:021192000994BE
:101194001F920F920FB60F9211248F93EF93FF9328
:1011A400E0E0F6E080E2858380E1858388E0858362
:1011B400FF91EF918F910F900FBE0F901F90189594
:1011C4002A88398848885F846E847D848C849B84D3
:1011D400AA84B984C884DF80EE80FD800C811B81E1
:1011E400AA81B981CE0FD11DCDBFDEBFED01089517
:1011F400E0E0F8E08BE591E080879187158280E458
:10120400868383E08783138614861686158686E094
:0C12140098E3809302389093033808950B
:10122000A0E0B0E0E6E1F9E00C94C108AE014B5F4C
:101230005F4FFA0161917191AF01809102389091F5
:0C12400003380E947300E2E00C94F208F6
:10124C000E94D0060E9485090E94E4090E94580859
:10125C000E94DD090E9437080E9478080E94F2075C
:08126C000E9478090C94FA08B5
:10127400092E0394000C11F4882352F0BB0F40F4A0
:10128400BF2B11F460FF04C06F5F7F4F8F4F9F4FE0
:021294000895BB
:101296001F920F920FB60F9211248F9382E08093C4
:0E12A60005068F910F900FBE0F901F901895A8
:1012B4001F920F920FB60F9211248F9381E08093A7
:0E12C40005068F910F900FBE0F901F9018958A
:1012D2001F920F920FB60F9211248F9381E0809389
:0E12E2008A008F910F900FBE0F901F901895ED
:1012F00040E068ED80E191E00E941A0AE0E1F1E04F
:0A13000012821382789480E00895B1
:10130A0060E080E890E00E941E0AE0E8F0E01186C2
:06131A00108680E008953A
:1013200090910B0692959695977081E001C0880F79
:061330009A95EAF708950A
:10133600FC010590615070400110D8F7809590959A
:061346008E0F9F1F0895A9
:10134C00FC016150704001900110D8F78095909588
:06135C008E0F9F1F089593
:1013620090958095709561957F4F8F4F9F4F08950F
:101372008091040886FB882780F991E089270895E7
:0E138200B11CF6016081718182819381089512
:0E139000E118F10A430B560BC90BD009089562
:0E139E009091040895FFFCCF809302080895FB
:0E13AC00E0E1F6E06081718182819381089515
:0E13BA00E0EAF0E083E08083118280E0089595
:0E13C80061E080E590E00E941E0A80E008953A
:0E13D60000240A941616170618060906089534
:0E13E40000240A941216130614060506089536
:0E13F200E894BB2766277727CB0197F908956B
:0C14000093FD859193FF81911F010895D9
:0C140C0097F99F6780E870E060E00895A9
:0A141800F2E0AF0EB11CF6010895DA
:0A1422000E94CF0980E090E00895D9
:08142C00B70180E290E0089591
:08143400FC0164BF4083089530
:08143C00462F68ED0C941A0A1A
:081444000E94BC050C943A095A
:06144C009FEF80EC089503
:041452000C940000F6
:0E1456000000000200000000110A000000006B
:02000004008278
:090000000000020000C40700002A
:00000001FF
